:020000040000fa
:080000000002040000000000f2
:020000040000fa
:10000800d2020000da020000fe020000e202000054
:10001800ea020000f202000002030000fa020000f7
:10002800fa020000fa020000fa020000fa020000d8
:10003800fa020000fa020000fa020000fa020000c8
:10004800fa020000fa020000fa020000fa020000b8
:10005800fa020000fa020000fa020000fa020000a8
:020000040000fa
:100400000f0021000eff24000e01880000000000f4
:10041000000020000000e000020032000001200087
:10042000200288000c00070020cf200001002000df
:100430000f000700000020000000e0000200320072
:100440000000020000000000d20c020000000000ca
:100450000040da000000fe00000520000000e0007f
:1004600002003200002020009001880000000600f9
:10047000a1028800800078000000eb001a0037001d
:10048000e280400054a0b4009101ba00e280400034
:1004900054a0b4009102ba00e280400054a0b4001d
:1004a0000002eb00472bde00f507b200a601880032
:1004b000602ce10008003a000049eb000201e8006e
:1004c000020039003420ec0002f0a0008301e900b2
:1004d000f9ff3e00040037006128e100010032000e
:1004e0000082eb00040007001101ba000200e000e6
:1004f000e3ff3a000000060004d0a300e20f490029
:100500001c003900810278003549ba000201e80078
:10051000020039003420ec0002f0a0008301e90061
:100520000f0032002549ba000201e800020039003c
:100530003420ec0002f0a0008301e9000800320042
:100540000400e0000600320015c9ba000201e8000c
:10055000020039003420ec0002f0a0008301e90021
:100560008180e80054a0b4000300e000e2ff3a00fc
:10057000000006009102ba00055978008301e900e5
:10058000f7ff3200c82ade00055978008301e90030
:10059000f3ff32000400e000f1ff320011d9ba008d
:1005a000eeff3700801f78000000fa00c028a90085
:1005b000ffff3700801f78000000fa00c068a90024
:1005c000ffff3700801f78000000fa00c048a90034
:1005d000ffff3700801f78000000fa00c088a900e4
:1005e000ffff3700801f78000000fa00c0a8a900b4
:1005f000ffff37000000fa00ffff37000000fa009d
:10060000ffff37000000fa00ffff37000000fa008c
:1006100006a2a9000682a8000080fa0000000600d9
:100620000000fa00040024000602ab00feff3a00be
:100630000642ab00fcff3a000662ab00faff3a004c
:100640000622ab00f8ff3a000682ab00f6ff3a0044
:100650004610800086026200e08f5200f2ff3a00ee
:100660000080fa00000006000000fa000662a80000
:100670000662ab00feff3a0008c2a900001080002d
:100680000080fa00000006000000fa000080fb0075
:1006900010108800441080000408b20000c0eb0075
:1006a0000b003a000400240046108000860262001d
:1006b000e08f5200fcff3a00d9ff0700000028003d
:1006c0000802b600e00f500001003200e0cfb30096
:1006d0000080fa00000006000000fa0006a2a80050
:1006e0000682a8000080fa00000006000000fa0060
:1006f00021108800301088000080fa0000000600f9
:100700000000fa000602a8000080fa0000000600bf
:100710000000fa000642a8000080fa00000006006f
:10072000889fbe008a9fbe008c1f78009d00070036
:10073000a400330003866c006450e1002e003200f8
:100740006420e100330032006150e1002f003200ec
:100750006120e1003100320085855500eb07b000d3
:1007600009002000080420000500370008044400a8
:1007700089844c000a0031000603430087834b0044
:100780000001530081815b00f8ff33000203be00cb
:100790000800a0000804440089844c00f6ff3900da
:1007a000c639dd0083017300010032001300200010
:1007b0008904d1000884d3000998a3000500320001
:1007c0000800a7000300a0008904d1000884d3001a
:1007d0008b05e8008904d1000884d3000001eb00f8
:1007e0000281d2003400070001f0a1000cf0a70044
:1007f00001f0a0007c0037006420e1007e003200a0
:100800000801be000200be00f7ff37006120e100d2
:10081000790032006000b800f3ff370000002000cc
:1008200001f82700f0ff37000001be004800070074
:100830000470a70003f0a1006509b10016003200a2
:100840000d0035006828e10006003500f0ff2f009c
:10085000f1ff27000300e00013003b000100280027
:100860000000050000004000818048008502e9008a
:10087000fcff3a0008003700f88f420002003c00fd
:100880008000eb00000005008100d1000080d30053
:100890008502e800fcff3a000300e00002003b0094
:1008a00060001000e0801800000006004f89de00a4
:1008b00082017800530037008100200061805500dc
:1008c0000b003d000b00200061fe2f000100e10045
:1008d0001d00340082817100610164008904d1002f
:1008e0000884d3000000e800faff3a0071002000fd
:1008f0006100640003007000020060000900320023
:1009000061044400e0844c000988a5000500320021
:100910008b05e8006808e10002003a008904d10074
:100920000884d300f20f20000258e10005003d00ca
:10093000c75ddd00f907b200898075000800780006
:10094000000006000bf827008b007800000005006f
:10095000c70ade00f107b200f50fb200080032004e
:10096000e1cf4200020032000170a0002400050027
:10097000810f7000010032000408050044000500ea
:10098000810f700002003a00140005008502e900a2
:100990000000400081c04800fcff3b000170a00047
:1009a000240005000004be00e9ff07000003be00ac
:1009b0000405be000200be00e5ff0700844f75007d
:1009c000000006000200be006450e1000500360091
:1009d0006420e100020036000968a30001003a002b
:1009e0000800be000160a0004f0678004f05be0061
:1009f0004f04be0000000600f0ff2f00f1ff2700ab
:100a0000f9ff3700881f7800030478000300e00036
:100a100007003d0060001000e08018006001190030
:100a2000e081190002003b0001f02d0003003700b7
:100a30000400070008f0a70001f0a0004f047800b0
:100a400000000600889fbe008a9fbe0000827000e2
:100a50000402710004827100260032000004be000e
:100a60000200be006011b8006b0920009502200052
:100a70000182cf000a0039000541b1000082cf0099
:100a8000070039000541b1000982cf000400390098
:100a90000541b1000882cf00010039000541b100d5
:100aa00005425200120032000a003b0082817100b0
:100ab000610164008100d1000080d3008984d300eb
:100ac0000884d3008b05e8000442e800f7ff3a00f1
:100ad000070037000804440089844c0000004800e7
:100ae000818048008b05e9000442e900f9ff3a00e3
:100af00071ff07004f05be004f04be000000060056
:020000040000fa
:100b000064650000766900006365000020690000ec
:100b10006e690000746100006c6900007a65000075
:100b200064000000646500007669000063650000f1
:100b300020680000617300002072000065740000ee
:100b4000757200006e65000064200000616e000098
:100b5000207500006e6b00006e6f0000776e000065
:100b6000204900004400000054720000616e000043
:100b7000736c000061740000656400003a000000be
:100b800064730000504900004320000069730000b6
:100b90002072000065610000647900000000000020
:020000040000fa
:100ba0000000fa000b0007001400070048000700cf
:100bb00014cea80000d82100c14220006b0307001a
:100bc00014cea9006d000700760007000080fa002f
:100bd000000006000000fa000002eb0074708800bc
:100be0000002eb00f470880010cea900114ea9009d
:100bf00011eea8000080fa00000006000000fa00d4
:100c0000153a8000f4fb2f00048362006404200086
:100c10007505200027742000844b7800854b7800f0
:100c2000864b78002536800004f82f00848262000d
:100c3000f40220000502720024368800453480004a
:100c400004fc2f00048262000400a00044348800e9
:100c5000153a8000040420000403780005037300a3
:100c6000640420007505200027742000844b780060
:100c7000854b7800864b78000080fa000000060063
:100c80000000fa0005e1a9000401280024088800fa
:100c90000542800004002100050272000442880021
:100ca000e4222200140888000068a90004428000a1
:100cb00004c0a00004d0a10004e0a0000442880009
:100cc0002068a80005e1a8000080fa0000000600e6
:100cd0000000fa0021e2a90021a2a9002182a900b6
:100ce0002162a900041180000480a1000490a100e9
:100cf0000411880020e2a90020c2a90020a2a900b6
:100d00002062a900041180000410a1000420a100a9
:100d1000041188002002a900540220004411880018
:100d200023c2a90023a2a9002362a9002342a9008b
:100d3000141180000460a1000470a1001411880047
:100d400022a2a9002442800004c0a10004d0a00077
:100d500004e0a000244288000168a9002168a800de
:100d600021e2a8002342a80000fc2c00a1062000dc
:100d7000fe0207000080fa00000006000400fa00ee
:100d8000642d2000040f780004222c001407980022
:100d90009e0078001e00900054fe07000080fa00bc
:100da000000006003000fa00b20620008106200094
:100db00010c0b3006c010700b201200081062000c2
:100dc00080c0b30068010700c20120008106200036
:100dd0000040eb006401070051072000800620005e
:100de000920107000042780085c6b300854f52008b
:100df00004003a00110120000058280022010700d9
:100e00000300370011022000205928001e010700ae
:100e10006a02470004007800280207006a024700bf
:100e20006c024200040078002d0207006a024700ad
:100e30001100200004007800340107006a02470016
:100e40000402e80011002000040078000e010700f1
:100e50006a0247000482e8001100200004007800c4
:100e60002a0107006a0247006302420011002000c5
:100e700004007800040107006a024700640242008f
:100e80001100200004007800200107006a024700da
:100e9000650242001100200004007800fa000700fb
:100ea0006a02470066024200110020000400780038
:100eb000160107006a024700670242001100200085
:100ec00004007800f00007006a0247006802420050
:100ed00011002000040078000c0107006a0247009e
:100ee000690242001100200004007800e6000700bb
:100ef0006a0247006a0242001100200004007800e4
:100f0000020107006a0247006b0242001100200044
:100f100004007800dc0007006a0247006c0242000f
:100f20001100200004007800f80007006a02470062
:100f30006d0242001100200004007800d20007007a
:100f40006a0247006e02420011002000040078008f
:100f5000ee0007006a0247006f0242001100200005
:100f600004007800c80007006a02470070024200cf
:100f70001100200004007800e40007006a02470026
:100f8000710242001100200004007800be0007003a
:100f9000b1002000405b2800bb000700fc024700b6
:100fa0006a0247008500780004007800e00107002d
:100fb0006e0a9000040f78007c0247000482e8006b
:100fc00094027800150798007c02470064024200f2
:100fd00014037800260798001e027800cfa2de00d6
:100fe0000400be0031fe07000002be00f226210010
:100ff000331824000400be00c9fd07000002be0033
:101000000400be0008fe07000002be00340798007e
:10101000450798003e029000ce029000482ade006c
:1010200004427800646f9800e40220000e0242003f
:101030001100200004007800b40007003e02900078
:10104000ce02900040aade00cfa2de00044278006b
:10105000646f9800e40220000e024200110020009c
:1010600004007800a90007003e029000ce02900024
:10107000482bdd004822de0004027300c8aade000f
:1010800004427800646f9800e40220000e024200df
:1010900011002000040078009c0007003e02900030
:1010a00004427800646f9800e40220000e024200bf
:1010b0001100200004007800940007001e02900038
:1010c000cfa2de000400be00f8fd07000002be0053
:1010d000f2262100331824000400be0090fd070012
:1010e0000002be000400be00cffd07000002be00eb
:1010f00034079800450798003e029000ce02900009
:10110000482ade0004427800646f9800e402200060
:101110000e02420011002000040078007b0007004e
:101120003e029000ce02900040aade00cfa2de0078
:1011300004427800646f9800e40220000e0242002e
:101140001100200004007800700007003e029000ab
:10115000ce029000482bdd004822de00040273001e
:10116000c8aade0004427800646f9800e402200000
:101170000e02420011002000040078006300070006
:101180003e02900004427800646f9800e402200060
:101190000e02420011002000040078005b000700ee
:1011a0002e029000cfa2de000400be00bffd0700ab
:1011b0000002be00f2262100331824000400be0005
:1011c00057fd07000002be000400be0096fd0700a8
:1011d0000002be0034079800450798003e029000c8
:1011e000ce029000482ade0004427800646f980026
:1011f000e40220000e0242001100200004007800ea
:10120000420007003e029000ce02900040aade009d
:10121000cfa2de0004427800646f9800e402200050
:101220000e02420011002000040078003700070081
:101230003e029000ce029000482bdd004822de00e6
:1012400004027300c8aade0004427800646f9800ac
:10125000e40220000e024200110020000400780089
:101260002a0007003e02900004427800646f980054
:10127000e40220000e024200110020000400780069
:1012800022000700ffff37000600fa001007980051
:10129000210798000002eb00040f78000b003700d4
:1012a0001e029000144278000402fb002411880002
:1012b0001e0290000402e8001407980000172100a5
:1012c00011002000a90107001e0fe8002e02900067
:1012d0009e027800848f5200f1ff3500d400200078
:1012e0002411880000172100110020009f01070031
:1012f000a400200024118800001721001100200004
:101300009a0107000080fa00000006000600fa00bb
:1013100010079800210798000002eb00040f7800e6
:101320000b0037001e029000144278000402fb00fc
:10133000241188001e0290000402e800140798009f
:101340000017210011002000880107001e0fe8008f
:101350002e0290009e027800848f5200f1ff35002b
:101360000080fa00000006000600fa00004f780036
:101370001107980022079800a9fc0700e0fc07006d
:10138000000000003410800061026200e00f520093
:10139000fcff3a001e029000040242000442780062
:1013a00004407800b8fc07000000000044108000f2
:1013b00061026200e00f5200fcff3a0000000000f2
:1013c000451080000400280004826200e00f5200f3
:1013d000fbff3a002e02900004427800044078009f
:1013e000a9fc070000000000451080000400280050
:1013f00004826200e00f5200fbff3a001e427800b8
:1014000004407800a0fc07000000000045108000a8
:101410000400280004826200e00f5200fbff3a0043
:10142000bbfc07000080fa00000006000600fa007e
:1014300010079800210798000042eb00044f780045
:1014400077fc0700aefc07000000000034108000ad
:1014500061026200e00f5200fcff3a001e029000a1
:1014600004024200044278000440780086fc070031
:10147000000000004410800061026200e00f520092
:10148000fcff3a0000000000451080000400280026
:1014900004826200e00f5200fbff3a002e0290002f
:1014a000044278000440780077fc07000000000048
:1014b000451080000400280004826200e00f520002
:1014c000fbff3a008efc0700000000003410800093
:1014d00061026200e00f5200fcff3a001e02900021
:1014e00004024200044278000404a0000440780092
:1014f00065fc070000000000451080000400280083
:1015000004826200e00f5200fbff3a0056fc070025
:1015100000427800044f78006ffc07007cfc070055
:10152000000000003410800064026200e00f5200ee
:10153000fcff3a001e427800044078000080fa0068
:10154000000006000a00fa00100798002107980022
:10155000320798004307980031fc070068fc070039
:10156000000000003410800061026200e00f5200b1
:10157000fcff3a003e029000040242000442780060
:101580000440780040fc0700000000004410800088
:1015900061026200e00f5200fcff3a000000000010
:1015a000451080000400280004826200e00f520011
:1015b000fbff3a004e02900004427800044078009d
:1015c00031fc0700000000004510800004002800e6
:1015d00004826200e00f5200fbff3a0048fc070063
:1015e000000000003410800061026200e00f520031
:1015f000fcff3a003e0290000402420004427800e0
:101600000404a000044078001ffc07000000000054
:10161000451080000400280004826200e00f5200a0
:10162000fbff3a000002eb00040f78000f003700c8
:101630000dfc0700004278009e029000844a78006a
:101640001e0290000402e800140798000228a90076
:10165000eefb070000000000144080006202620000
:10166000e00f5200fcff32001e0fe8002e02900037
:101670000402e9009e0f5200edff3c00fafb070058
:10168000004278009e029000844a78001e0290007a
:101690000402e800140798000ffc07001cfc070078
:1016a000000000003410800064026200e00f52006d
:1016b000fcff3a000080fa00000006000200fa0079
:1016c000000f7800b303200082062000c100200034
:1016d0001e0078009bff07000080fa000000060053
:1016e0000200fa00000f780072032000810620003b
:1016f00020c0b3001cff0700a2002000c100200092
:1017000010c0b30018ff070000e62a00a100200067
:101710009600070033002000c20020006100200076
:101720001e00780087ff07000080fa000000060016
:101730000400fa00000f7800110798001e027800dc
:10174000144278000482fb00c822dd001e02e8007b
:10175000144278000482fb000502720084027800c3
:101760001e029000050a78001e0290000482e80024
:10177000140798001e82e800144278000482fb00df
:10178000c822dd001e037800630243001442780083
:101790000482fb0005027200840278001e029000a1
:1017a000050a78001e0290000482e80014079800e1
:1017b0009e02780064824200144278000482fb009a
:1017c000c822dd001e037800650243001442780041
:1017d0000482fb0005027200840278001e02900061
:1017e000050a78001e0290000482e80014079800a1
:1017f0009e02780066824200144278000482fb0058
:10180000c822dd001e0378006702430014427800fe
:101810000482fb0005027200840278001e02900020
:10182000050a78001e0290000482e8001407980060
:101830009e02780068824200144278000482fb0015
:10184000c822dd001e0378006902430014427800bc
:101850000482fb0005027200840278001e029000e0
:10186000050a78001e0290000482e8001407980020
:101870009e0278006a824200144278000482fb00d3
:10188000c822dd001e0378006b024300144278007a
:101890000482fb0005027200840278001e029000a0
:1018a000050a78001e0290000482e80014079800e0
:1018b0009e0278006d824200144278000482fb0090
:1018c000c822dd001e0378006c0243001442780039
:1018d0000482fb0005027200840278001e02900060
:1018e000050a78001e0290000482e80014079800a0
:1018f0009e0278006f824200144278000482fb004e
:10190000c822dd001e0378006e02430014427800f6
:101910000482fb0005027200840278001e0290001f
:10192000050a78001e0290000482e800140798005f
:101930009e02780071824200144278000482fb000b
:10194000c822dd001e0378007002430014427800b4
:101950000482fb0005027200840278001e029000df
:0c196000050a78000080fa000000060074
:020000040000fa
:10196c00f03fb1000180b10006003500ee03090024
:10197c0000000000403fb1000180b100fbff3d00c2
:10198c001000b000203fb0000200350000800900bc
:08199c0000000000000006003d
:020000040000fa
:1019a4000000fa00070007007cfc070010cea90025
:1019b40014cea900e1002000005c280031fe0700dd
:1019c400ffff37000000fa0044042000343a880086
:1019d4000002eb00243a88000080fa0000000600b0
:020000040000fa
:0419e40000000000ff
:020000040000fa
:020000040002f8
:04afe000cfff00009f
:020000040000fa
:020000040002f8
:04afe400efff00007b
:020000040000fa
:020000040002f8
:04afe8007fff0000e7
:020000040000fa
:020000040002f8
:04afec00b9ff0000a9
:020000040000fa
:020000040002f8
:04aff000fbff000063
:020000040000fa
:020000040002f8
:04aff400ffff00005b
:00000001FF
