:020000040000fa
:080000000002040000000000f2
:020000040000fa
:100008000e030000160300003a0300001e03000060
:10001800260300002e0300003e0300003603000004
:1000280036030000360300003603000036030000e4
:1000380036030000360300003603000036030000d4
:10004800360300003603000036030000d202000029
:1000580036030000360300003603000036030000b4
:1000680036030000360300003603000036030000a4
:100078003603000036030000360300003603000094
:100088003603000036030000360300003603000084
:020000040000fa
:100400004f0a21000eff24000e01880000000000aa
:10041000000020000000e000020032000001200087
:10042000200288000c000700a0f02200010020003c
:100430000f000700000020000000e0000200320072
:100440000000020000000000ba2d020000000000c1
:100450000040da000000fe00800620000000e000fe
:1004600002003200002020009001880000000600f9
:10047000a1028800800078000000eb001a0037001d
:10048000e280400054a0b4009101ba00e280400034
:1004900054a0b4009102ba00e280400054a0b4001d
:1004a0000002eb00472bde00f507b200a601880032
:1004b000602ce10008003a000049eb000201e8006e
:1004c000020039003420ec0002f0a0008301e900b2
:1004d000f9ff3e00040037006128e100010032000e
:1004e0000082eb00040007001101ba000200e000e6
:1004f000e3ff3a000000060004d0a300e20f490029
:100500001c003900810278003549ba000201e80078
:10051000020039003420ec0002f0a0008301e90061
:100520000f0032002549ba000201e800020039003c
:100530003420ec0002f0a0008301e9000800320042
:100540000400e0000600320015c9ba000201e8000c
:10055000020039003420ec0002f0a0008301e90021
:100560008180e80054a0b4000300e000e2ff3a00fc
:10057000000006009102ba00055978008301e900e5
:10058000f7ff3200c82ade00055978008301e90030
:10059000f3ff32000400e000f1ff320011d9ba008d
:1005a000eeff3700801f7800849fbe000200fa0033
:1005b00034118000044f780014c3b3009e427800c9
:1005c00084cf520003003a0014002000c484880045
:1005d0000d00370034c3b3009e42780084cf520030
:1005e00003003a0014002000d4848800060037007d
:1005f00024c3b3009e42780084cf520002003a0028
:1006000014002000e48488000168a9000080fa003a
:100610004f02be004f00780000400600801f7800a7
:100620000000fa00c028a900ffff3700801f7800f3
:100630000000fa00c068a900ffff3700801f7800a3
:100640000000fa00c048a900ffff3700801f7800b3
:100650000000fa00c088a900ffff3700801f780063
:100660000000fa00c0a8a900ffff37000000fa0050
:10067000ffff37000000fa00ffff37000000fa001c
:10068000ffff37000000fa0006a2a9000682a800ba
:100690000080fa00000006000000fa0004002400b8
:1006a0000602ab00feff3a000642ab00fcff3a0038
:1006b0000662ab00faff3a000622ab00f8ff3a00f0
:1006c0000682ab00f6ff3a00461080008602620008
:1006d000e08f5200f2ff3a000080fa0000000600ae
:1006e0000000fa000662a8000662ab00feff3a00b6
:1006f00008c2a900001080000080fa000000060077
:100700000000fa000080fb001010880044108000f8
:100710000408b20000c0eb000b003a000400240003
:100720004610800086026200e08f5200fcff3a0013
:10073000d9ff0700000028000802b600e00f5000b3
:1007400001003200e0cfb3000080fa000000060094
:100750000000fa0006a2a8000682a8000080fa00a5
:10076000000006000000fa00211088003010880008
:100770000080fa00000006000000fa000602a8004f
:100780000080fa00000006000000fa000642a800ff
:100790000080fa000000060003f0a200889fbe005f
:1007a0008a9fbe008c1f78008001070087013300fc
:1007b0006450e1004f0032006420e100520032003a
:1007c00003826c0007003b000905d0000306d0003f
:1007d000820f54000c065d00020039000200320056
:1007e00089017800030678008582550004003d00e9
:1007f0000003fd008103fd008502ea008b854200b5
:10080000840f720002003b0060001000e0801800be
:100810006011b8000005eb007a28e1000a003900f9
:1008200006007800c75ddd00f707b200878075001d
:100830002d003700828171000a0178006105600097
:100840008180d1000080d3008502e900f9ff3b00e0
:10085000060440008784480002003b006004140046
:10086000e0841c000988a300070032008a8171001f
:1008700082817100610164008904d1000884d30081
:100880008b05e800170037000978a30013003a0031
:100890000b00e000130034008b05e900080444005d
:1008a00089844c000a4474000978a3000d003a00c2
:1008b0000b00e000070034008b05e9000804440049
:1008c00089844c0001003a000b0020000978a30045
:1008d000f7ff32000001eb00020037008281710057
:1008e0000a017800f60007000cf0a70001f0a00054
:1008f0003f0137006420e10002003a00838f6c0062
:100900003f0133000801be000200be00380137007d
:100910000001eb00a6013700889fbe008a9fbe0041
:100920008c1f7800210107001002200002003b000c
:1009300010858800250137008a0062006408e10004
:1009400002003a00108588002d0137006108e1009f
:10095000fcff32000800be000304780070000700ae
:1009600001f0a1000900070008f0a600040037000c
:100970000001be0091042400b0fd200086ff0700a6
:1009800009f0a70001f0a20019013700889fbe00fe
:100990008a9fbe008c9fbe000004be00ee000700d0
:1009a0000800be00890678006420e10008003900d4
:1009b000040032000160a0001202200012858800ad
:1009c0005300370091fc2300b0fd20004e0037009b
:1009d0000006eb0009f0a10003f82300020020004c
:1009e0000800be00900007000600340001f8230054
:1009f000000020000801be00490007000004be00fe
:100a00002c0020000800be0093e82300320a2300d7
:100a100085000700120034000801be00d1fd23004c
:100a2000703d2b005dff07000005be00b3f32300ff
:100a3000f27a26000800be00f400070003f8230045
:100a40000200200054ff07000801be0053ff07000a
:100a50000a01be00320007000004be000c06e800d8
:100a60000800be0001f0a10002002000039823004e
:100a70006d0007000800be00160035000801be002a
:100a8000e20007000005be0032cd2c0043fb23002e
:100a900042ff0700809fbe001269280003d52b008b
:100aa0000a00be00d9000700620f210013ef2b00df
:100ab0003aff07000a01be00d40007004f01be0044
:100ac000170007000801be00d00007000801be00a3
:100ad00032ff07000c00e0000b0032000c10a700f2
:100ae00001f0a200b2fd200093fc23006260e1004f
:100af0000400320022a9200063f023000c10a7009c
:100b000063f8230025ff07000df0a70001f0a20005
:100b10004f06be004f05be004f04be000000060099
:100b2000889fbe008a9fbe008c1f78009f00070030
:100b3000a600330003866c006450e1002e003200f2
:100b40006420e100330032006150e1002f003200e8
:100b50006120e1003100320085855500eb07b000cf
:100b600009002000080420000500370008044400a4
:100b700089844c000a0031000603430087834b0040
:100b80000001530081815b00f8ff33000203be00c7
:100b90000800a0000804440089844c00f6ff3900d6
:100ba000c639dd008301730001003200130020000c
:100bb0008904d1000884d3000998a30005003200fd
:100bc0000800a7000300a0008904d1000884d30016
:100bd0008b05e8008904d1000884d3000001eb00f4
:100be0000281d2003600070001f0a1000cf0a7003e
:100bf00001f0a0007e0037006420e1008000320098
:100c00000801be000200be00f7ff37006120e100ce
:100c10007b0032006000b800f3ff370000002000c6
:100c200001f82700f0ff37001400200047013700cb
:100c30000001be00480007000470a70003f0a100f7
:100c40006509b100160032000d0035006828e1008a
:100c500006003500f0ff2f00f1ff27000300e00041
:100c600013003b00010028000000050000004000c8
:100c7000818048008502e900fcff3a000800370047
:100c8000f88f420002003c008000eb0000000500ed
:100c90008100d1000080d3008502e800fcff3a000b
:100ca0000300e00002003b0060001000e08018003c
:100cb000000006004f89de00820178004001370005
:100cc00081002000618055000b003d000b002000da
:100cd00061fe2f000100e1001d00340082817100df
:100ce000610164008904d1000884d3000000e80099
:100cf000faff3a00710020006100640003007000f8
:100d0000020060000900320061044400e0844c00ed
:100d10000988a500050032008b05e8006808e1009d
:100d200002003a008904d1000884d300f20f2000a9
:100d30000258e10005003d00c75ddd00f907b20083
:100d40008980750008007800000006000bf8270075
:100d50008b00780000000500c70ade00f107b20032
:100d6000f50fb20008003200e1cf4200020032006d
:100d70000170a00024000500810f70000100320006
:100d80000408050044000500810f700002003a00cd
:100d9000140005008502e9000000400081c0480001
:100da000fcff3b000170a000240005000004be0011
:100db000e9ff07000003be000405be000200be00fc
:100dc000e5ff0700844f7500000006000200be002a
:100dd0006450e100050036006420e10002003600a6
:100de0000968a30001003a000800be000160a000ed
:100df0004f0678004f05be004f04be0000000600fd
:100e0000f0ff2f00f1ff2700f9ff3700889fbe0099
:100e10008a9fbe008c1f7800e4ff0700ebff3300c1
:100e200003866c006450e100240032006420e1007d
:100e3000270032006150e100220032006120e10011
:100e4000210032008b854200eb07b1000134b8006d
:100e5000003ab8000804420089844a00013ab80008
:100e60000030b8008880400009014a0004003300c7
:100e70000000400081804800020149008b05e90024
:100e8000c909dd0083017000010032001300200059
:100e9000c814de004814dd004709de001200b2006d
:100ea000c808de000884700085ff070001f0a1007b
:100eb0000cf0a70001f0a000cdff37006120e10099
:100ec000cfff32000801be000200be00f7ff37006e
:100ed0006150e100fcff3a00c9ff3700889fbe0067
:100ee0008a9fbe008c1f78000004be009aff070096
:100ef0000478a30026003a006120e10025003200ba
:100f000009f8a30025003a006420e1002100320026
:100f1000f507b1000508a300020032000000400000
:100f2000818048006044b8000310200002002000c7
:100f300000004000818048000805440089854c007d
:100f40000a0541008b8549000a0550008b85580031
:100f5000030033000a00be0002047400838474009e
:100f60008301d1000281d300830f7100f0ff3a00aa
:100f70008904d1000884d30060014900820178000f
:100f8000c1adde00fb07b0004dff070098ff370042
:100f90000960a0000800be0095ff37001202200083
:100fa00012858800f0ff2f00f1ff270090ff370027
:100fb000889fbe008a9fbe008c9fbe0002067800fc
:100fc00001f0a7000cf0a0000004be0062ff0700c3
:100fd0000800be006420e1000700390002003a006a
:100fe000f1ff2700f0ff2f000160a0001202200097
:100ff000128588005100370009f0a1000800be00ea
:101000000200200003f823006b000700f4ff3c00ff
:101010000800be00020020000398230002ff070022
:101020000800be00300035000200200003f023005d
:101030006100070005003c000800be000801be007a
:1010400072ff07000005be000e0037000c10a20062
:101050000000200001f823000801be00cefd0700bb
:101060000200200003f0230068ff07000005be0017
:101070009aff07000200200003002c0063ff070016
:101080000004be000a00be00b2d02800130b2c00e2
:10109000c2fd07000a01be005cff0700020f250029
:1010a000330b2400bdfd0700809fbe000a00be0078
:1010b0005206220013f02b0054ff0700b2662100f5
:1010c000f3f62300b5fd07000a01be004fff07003d
:1010d0004f01be0092fe07000801be004bff070053
:1010e0000801be00adfd07000c00a7000700370097
:1010f000b2fd200093fc23000c10a700a7fd070001
:101100000cf0a70001f0a2000c0037000cf0a700c3
:101110000200370001f0a20004003700b2fd2000f9
:10112000930424000c10a60003003700b2fd200039
:1011300093fc23000c10a70098fd07004f06be008b
:101140004f05be004f04be0000000600889fbe0091
:101150008a9fbe00841f780014ff07004f007800ac
:1011600011003300f0ff2f00838f6c0006003b005e
:10117000040565000a00a7000800370009f0a60072
:101180001000200008003700820f5400838f5c009d
:10119000030039001000200001003e000000200084
:1011a00009f0a7000000ea004f05be004f04be0092
:1011b0000000e00000000600f4ff2f00e3ff37000e
:1011c000881f7800030478000300e00007003d005a
:1011d00060001000e080180060011900e081190033
:1011e00002003b0001f02d0003003700040007005f
:1011f00008f0a70001f0a0004f04780000000600ee
:10120000889fbe008a9fbe000082700004027100a9
:1012100004827100260032000004be000200be00fd
:101220006011b8006b092000950220000182cf00f8
:101230000a0039000541b1000082cf0007003900e3
:101240000541b1000982cf00040039000541b10019
:101250000882cf00010039000541b100054252006b
:10126000120032000a003b008281710061016400bb
:101270008100d1000080d3008984d3000884d3008a
:101280008b05e8000442e800f7ff3a00070037004a
:101290000804440089844c00000048008180480014
:1012a0008b05e9000442e900f9ff3a0084fe0700db
:0c12b0004f05be004f04be000000060009
:020000040000fa
:1012bc006465000076690000636500002069000029
:1012cc006e690000746100006c6900007a650000b2
:1012dc00640000006465000076690000636500002e
:1012ec00206800006173000020720000657400002b
:1012fc00757200006e65000064200000616e0000d5
:10130c00207500006e6b00006e6f0000776e0000a1
:10131c002049000044000000aaf10000823f0000b8
:10132c004260000065bd0000964300008b3c00004d
:10133c007f6a0000bc3d0000f4fd0000843f00000b
:10134c006f120000033b00006f120000833b000093
:10135c0058390000343c000066660000863f0000ef
:10136c0064730000504900004320000069730000c2
:10137c00207200006561000064790000000000002c
:020000040000fa
:10138c009c00fa00889fbe008a9fbe008c9fbe0006
:10139c006087980071879800028f9800138f9800cf
:1013ac00248f9800358f9800468f9800578f98009f
:1013bc006011b8007eb097008eb8970017fe07003a
:1013cc0000027800e00f52001f003a006011b800d4
:1013dc005eb09700eeb0970010fe07000002780098
:1013ec00e00f520018003a006011b8003eb09700b0
:1013fc00ceb0970009fe070000027800e00f520003
:10140c0011003a001eba9700aeba9700849fbe0036
:10141c003eba9700ceba9700849fbe004e8b9000c8
:10142c00de8b90002e8a9000be8a90000e89900070
:10143c009e8990006e809000fe80900071080700dd
:10144c00e88757006a0837001484800025848000e0
:10145c0005f0a2006e819000fe8190000400be0099
:10146c0067fe07000002be000404be003484800046
:10147c00458480000e8990009e8990000400be0077
:10148c005ffe07000002be000401be000800be00a3
:10149c00befc07000002be000404be0054848000a1
:1014ac00658480002e899000be8990000400be00e7
:1014bc0053fe07000002be000401be000800be007f
:1014cc00b2fc07000002be000200200003f0230063
:1014dc000400be004afe07000002be00048fbe00de
:1014ec0094848000a58480006e819000fe81900021
:1014fc000400be0042fe07000002be000404be0051
:10150c0034848000458480002e899000be89900030
:10151c000400be003afe07000002be000401be003b
:10152c000800be009afc07000002be000404be00c6
:10153c0054848000658480000e8990009e89900000
:10154c000400be002efe07000002be000401be0017
:10155c000800be008dfc07000002be000200200047
:10156c0003f023000400be0025fe07000002be00ad
:10157c00240798003507980094848000a584800087
:10158c000e8990009e8990000400be001cfe07008e
:10159c000002be000404be00148480002584800078
:1015ac002e899000be8990000400be0014fe070036
:1015bc000002be000401be000800be0073fc070060
:1015cc000002be000404be005484800065848000c8
:1015dc006e819000fe8190000400be0008fe0700a2
:1015ec000002be000401be000800be0068fc07003b
:1015fc000002be000200200003f023000400be0025
:10160c00fffd07000002be00440798005507980034
:10161c0094848000a58480002e899000be8990005f
:10162c000400be00f6fd07000002be000404be006c
:10163c0014848000258480000e8990009e8990007f
:10164c000400be00eefd07000002be000401be0057
:10165c000800be004efc07000002be000404be00e1
:10166c0034848000458480006e819000fe8190005f
:10167c000400be00e2fd07000002be000401be0033
:10168c000800be0041fc07000002be000200200062
:10169c0003f023000400be00d9fd07000002be00c9
:1016ac00640798007507980018c0b3006011b80063
:1016bc004e889000de88900058fd070000027800ec
:1016cc00e00f5200010032000044eb0008427800a9
:1016dc000404a200e04f52001a003a0018c0b300f4
:1016ec006011b8003eb89700ceb897004bfd0700cc
:1016fc0000027800e00f5200010032000044eb00c1
:10170c00084278000404a200e04f52000d003a0099
:10171c0018c0b3006011b8001eb89700aeb897009f
:10172c003efd070000027800e00f5200010032007d
:10173c000044eb00084278000404a200e04f520081
:10174c00180732004e899000de8990004e88900078
:10175c00de889000aafd07000002be000404be0053
:10176c003eb99700ceb997003eb89700ceb8970017
:10177c00a3fd07000002be000401be000800be006d
:10178c0003fc07000002be000404be001eb9970053
:10179c00aeb997001eb89700aeb8970098fd070039
:1017ac000002be000401be000800be00f8fb0700ea
:1017bc000002be000400be002d0b07000002be009c
:1017cc00040f9800150f98000e0990009e099000c8
:1017dc004e889000de88900089fd07000002be0054
:1017ec00448f9800558f98000e0990009e09900028
:1017fc003eb89700ceb8970081fd07000002be00ee
:10180c0034bf9f0045bf9f000e0990009e099000b9
:10181c001eb89700aeb8970079fd07000002be0015
:10182c0014bf9f0025bf9f007eb197008eb9970013
:10183c007eb097008eb8970071fd07000002be00c5
:10184c000404be005eb19700eeb197005eb0970045
:10185c00eeb097006afd07000002be000401be0056
:10186c000800be00cafb07000002be000404be0054
:10187c003eb19700ceb197003eb09700ceb0970026
:10188c005ffd07000002be000401be000800be00a0
:10189c00bffb07000002be000400be00f40a0700f4
:1018ac000002be00040f9800150f98000e0990005e
:1018bc009e0990007eb097008eb8970050fd0700ef
:1018cc000002be0074b79f0005bf9f000e09900078
:1018dc009e0990005eb09700eeb0970048fd07009f
:1018ec000002be0054b79f0065b79f000e09900020
:1018fc009e0990003eb09700ceb0970040fd0700c7
:10190c000002be0034b79f0045b79f00948480004e
:10191c00a58480000401be000400be009cfb0700ef
:10192c000002be007eb197008eb997000400be0085
:10193c0033fd07000002be00240f9800350f9800fd
:10194c0094848000a58480000401be000400be00c5
:10195c008ffb07000002be005eb19700eeb197004e
:10196c000400be0026fd07000002be00440f9800d4
:10197c00550f980094848000a58480000401be005b
:10198c000400be0082fb07000002be003eb19700bf
:10199c00ceb197000400be0019fd07000002be0086
:1019ac00640f9800750f98001484800025848000c3
:1019bc000401be000400be0075fb07000002be005f
:1019cc007eb197008eb997000400be000cfd070095
:1019dc000002be000417980015179800948480002c
:1019ec00a58480000401be000400be0068fb070053
:1019fc000002be002417980035179800148480004c
:101a0c00258480000401be000400be0060fb0700ba
:101a1c000002be00441798005517980034848000cb
:101a2c00458480000401be000400be0058fb070082
:101a3c000002be006417980075179800548480004b
:101a4c00658480000401be000400be0050fb07004a
:101a5c000002be00041f9800151f9800948480009b
:101a6c00a58480000401be000400be0048fb0700f2
:101a7c000002be000403be00348480004584800054
:101a8c000401be000600be00ddfc07000002be0023
:101a9c00241f9800351f98003484800045848000f2
:101aac000401be000400be0039fb07000002be00aa
:101abc000403be0054848000658480000401be00d1
:101acc000600be00cefc07000002be00441f9800ba
:101adc00551f980096848000a78480009484800011
:101aec00a58480000401be000600be00c4fc0700f3
:101afc000002be00641f9800751f98009684800039
:101b0c00a784800014848000258480000401be001a
:101b1c000600be00bafc07000002be0004279800b5
:101b2c001527980096848000a78480003484800058
:101b3c00458480000401be000600be00b0fc070016
:101b4c000002be0024279800352798009684800058
:101b5c00a784800054848000658480000401be004a
:101b6c000600be00a6fc07000002be004427980039
:101b7c0055279800168480002784800014848000e8
:101b8c00258480000401be000600be009cfc0700fa
:101b9c000002be0064279800752798001684800008
:101bac002784800034848000458480000401be00ba
:101bbc000600be0092fc07000002be00042f980035
:101bcc00152f980016848000278480005484800090
:101bdc00658480000401be000600be0088fc07007e
:101bec000002be00242f9800352f98003684800008
:101bfc004784800034848000458480000401be004a
:101c0c000600be007efc07000002be00442f9800b8
:101c1c00552f9800368480004784800054848000bf
:101c2c00658480000401be000600be0074fc070041
:101c3c000002be00642f9800752f98005684800017
:101c4c006784800054848000658480000401be0099
:101c5c000600be006afc07000002be0004379800b4
:101c6c00153798006e199000fe1990007eb0970001
:101c7c008eb8970062fc07000002be000404be0090
:101c8c0054848000658480004e099000de09900029
:101c9c000400be005afc07000002be000401be0096
:101cac000800be00b9fa07000002be000404be0022
:101cbc0034848000458480006e099000fe099000f9
:101ccc000400be004efc07000002be000401be0072
:101cdc000800be00aefa07000002be000404be00fd
:101cec006e219000fe2190007eb097008eb8970078
:101cfc0043fc07000002be000401be000800be0049
:101d0c00a3fa07000002be000404be005eb19700f7
:101d1c00eeb197004e109000de10900038fc0700da
:101d2c000002be000403be003484800045848000a1
:101d3c000401be000600be0031fc07000002be001c
:101d4c000401be000800be0091fa07000002be00ac
:101d5c000404be003eb19700ceb197004e10900027
:101d6c00de10900026fc07000002be000403be003b
:101d7c0054848000658480000401be000600be000f
:101d8c001ffc07000002be000401be000800be00dc
:101d9c007ffa07000002be000404be004e2990002a
:101dac00de2990007eb097008eb8970014fc0700d7
:101dbc000002be000401be000800be0073fa07005a
:101dcc000002be000404be000e3190009e31900053
:101ddc007eb097008eb8970009fc07000002be0089
:101dec000401be000800be0068fa07000002be0035
:101dfc00243798003537980054848000658480001f
:101e0c002e099000be0990000400be00fcfb0700e8
:101e1c000002be000404be006e199000fe19900072
:101e2c005eb09700eeb09700f5fb07000002be0015
:101e3c000401be000800be0055fa07000002be00f7
:101e4c000404be0014848000258480006e09900078
:101e5c00fe0990000400be00e9fb07000002be0072
:101e6c000401be000800be0048fa07000002be00d4
:101e7c000404be0034848000458480000e11900060
:101e8c009e1190000400be00ddfb07000002be00a6
:101e9c000401be000800be003dfa07000002be00af
:101eac000404be006e219000fe2190005eb09700ed
:101ebc00eeb09700d2fb07000002be000401be008a
:101ecc000800be0031fa07000002be000404be0088
:101edc004e299000de2990005eb09700eeb097007e
:101eec00c7fb07000002be000401be000800be00d4
:101efc0027fa07000002be000404be003eb19700a2
:101f0c00ceb197006e109000fe109000bcfb070045
:101f1c000002be000403be0054848000658480006f
:101f2c000401be000600be00b5fb07000002be00a7
:101f3c000401be000800be0015fa07000002be0036
:101f4c000404be000e3190009e3190005eb09700ec
:101f5c00eeb09700aafb07000002be000401be0011
:101f6c000800be0009fa07000002be0044379800c2
:101f7c00553798002e319000be3190002e309000d5
:101f8c00be3090009efb07000002be000404be00a1
:101f9c004e319000de3190004e309000de309000db
:101fac0097fb07000002be000401be000800be0043
:101fbc00f7f907000002be000400be00c4fb0700d6
:101fcc000002be0064379800753798002e0a900006
:101fdc00be0a90000403be0007f0a2003484800007
:101fec00458480000401be000600be0084fb07008f
:101ffc000002be000404be0014848000258480000e
:10200c004e099000de0990000400be007cfb070026
:10201c000002be000401be000800be00dcf907008f
:10202c000002be000404be006e199000fe19900060
:10203c003eb09700ceb0970071fb07000002be00c7
:10204c000401be000800be00d1f907000002be006a
:10205c000404be0054848000658480000e1190003e
:10206c009e1190000400be0065fb07000002be003c
:10207c000401be000800be00c5f907000002be0046
:10208c000404be006e219000fe2190003eb097002b
:10209c00ceb097005afb07000002be000401be0040
:1020ac000800be00b9f907000002be000404be001f
:1020bc005eb19700eeb197006e109000fe1090008c
:1020cc004ffb07000002be000403be0054848000d6
:1020dc00658480000401be000600be0048fb0700ba
:1020ec000002be000401be000800be00a8f90700f3
:1020fc000002be000404be004e299000de299000b0
:10210c003eb09700ceb097003dfb07000002be002a
:10211c000401be000800be009cf907000002be00ce
:10212c000404be000e3190009e3190003eb097002a
:10213c00ceb0970032fb07000002be000401be00c7
:10214c000800be0092f907000002be00043f980090
:10215c00153f98006e329000fe3290000401be00d4
:10216c000400be008af907000002be00243f98005c
:10217c00353f98000e3a90009e3a90000401be0044
:10218c000400be0082f907000002be00443f980024
:10219c00553f98006e129000fe1290000404be0091
:1021ac0009f0a2002e2a9000be2a90000401be0065
:1021bc000400be0076f907000002be002e19900044
:1021cc00be1990000400be0070f907000002be00aa
:1021dc004e899000de8990000400be006bf9070068
:1021ec000002be000401be000800be0004fb070094
:1021fc000002be000404be000e2290009e2290003d
:10220c000401be000400be0061f907000002be001c
:10221c004e199000de1990000400be005cf9070016
:10222c000002be003eb99700ceb997000400be0074
:10223c0056f907000002be004e119000de1190000e
:10224c000400be00eefa07000002be000401be004e
:10225c000800be004ef907000002be000404be00d8
:10226c0034848000458480000e3990009e399000a3
:10227c000400be00e2fa07000002be000405be0026
:10228c004e299000de2990000000200001f0230070
:10229c003ef907000002be000e3190009e31900006
:1022ac000400be0039f907000002be006e31900038
:1022bc00fe3190000400be00d1fa07000002be00ff
:1022cc000406be002e219000be2190002e28900006
:1022dc00be2890002df907000002be000e399000b8
:1022ec009e3990000400be00c5fa07000002be0033
:1022fc000401be000c00be0025f907000002be0060
:10230c007eb197008eb997000400be001ff907003c
:10231c000002be000401be000a00be00b8fa0700ad
:10232c000002be000401be000800be0017f9070041
:10233c000002be000404be006e329000fe3290001b
:10234c000403be0007f0a200548480006584800062
:10235c000401be000600be00a9fa07000002be0080
:10236c000405be0014848000258480000e39900082
:10237c009e3990000400be00a1fa07000002be00c6
:10238c000401be000a00be0001f907000002be00f5
:10239c000405be004e219000de2190000e28900016
:1023ac009e289000f9f807000002be006e319000e4
:1023bc00fe3190000400be0091fa07000002be003e
:1023cc000406be006e299000fe2990000e2090009d
:1023dc009e209000eef807000002be000e3990001f
:1023ec009e3990000400be0085fa07000002be0072
:1023fc000401be000c00be00e5f807000002be00a0
:10240c005eb19700eeb197000400be00dff8070044
:10241c000002be000401be000a00be0078fa0700ec
:10242c000002be000401be000800be00d8f8070080
:10243c000002be000404be00348480004584800089
:10244c006e319000fe3190000400be006cfa070063
:10245c000002be000405be002e299000be2990008b
:10246c002e209000be209000c9f807000002be008c
:10247c006e319000fe3190000400be0060fa07003f
:10248c000002be000406be006e219000fe219000ea
:10249c000000200001f02300bcf807000002be0081
:1024ac004e299000de2990000400be00b7f807000a
:1024bc000002be000e3990009e3990000400be0050
:1024cc004ffa07000002be000401be000c00be0063
:1024dc00aff807000002be003eb19700ceb19700e6
:1024ec000400be00a9f807000002be000401be00f3
:1024fc000a00be0042fa07000002be000401be0042
:10250c000800be00a2f807000002be00643f98005d
:10251c00753f98002e2a9000be2a90000401be0040
:10252c000400be009af807000002be002e199000ad
:10253c00be1990000400be0094f807000002be0013
:10254c004e899000de8990000400be008ff80700d1
:10255c000002be000e1990009e1990000400be00ef
:10256c0027fa07000002be000404be000e229000f1
:10257c009e2290000401be000400be0084f80700f7
:10258c000002be004e199000de1990000400be003f
:10259c007ff807000002be003eb99700ceb9970045
:1025ac000400be0079f807000002be002e11900056
:1025bc00be1190000400be0011fa07000002be001c
:1025cc000401be000800be0071f807000002be0046
:1025dc000404be00148480002584800002002000c6
:1025ec00030824000400be0005fa07000002be0028
:1025fc000405be006e229000fe2290000401be0075
:10260c000400be0062f807000002be000401be0018
:10261c000000200001f823005cf807000002be0057
:10262c000406be004e2a9000de2a90000401be0073
:10263c000400be0056f807000002be000401be00f4
:10264c000c00be0051f807000002be001eb9970036
:10265c00aeb997000400be004cf807000002be00a3
:10266c000401be000a00be00e5f907000002be002e
:10267c000401be000800be0044f807000002be00c2
:10268c000404be0054848000658480000e399000e0
:10269c009e3990000400be00d9f907000002be006c
:1026ac000405be004e299000de2990000000200099
:1026bc0001f0230035f807000002be000e31900037
:1026cc009e3190000400be0030f807000002be00ee
:1026dc006e319000fe3190000400be00c8f9070076
:1026ec000002be000406be002e219000be21900008
:1026fc002e289000be28900024f807000002be008f
:10270c000e3990009e3990000400be00bcf9070001
:10271c000002be000401be000c00be001cf8070045
:10272c000002be007eb197008eb997000400be0077
:10273c0016f807000002be000401be000a00be002d
:10274c00aff907000002be000401be000800be0085
:10275c000ff807000002be000404be0034848000a1
:10276c00458480006e319000fe3190000400be0064
:10277c00a3f907000002be000405be00948480008b
:10278c00a58480000e3990009e3990000400be0094
:10279c009bf907000002be000401be000a00be0047
:1027ac00fbf707000002be000405be004e2190009e
:1027bc00de2190000e2890009e289000f3f7070071
:1027cc000002be006e319000fe3190000400be008d
:1027dc008bf907000002be000406be006e299000b3
:1027ec00fe2990000e2090009e209000e8f7070034
:1027fc000002be000e3990009e3990000400be000d
:10280c007ff907000002be000401be000c00be00f0
:10281c00dff707000002be005eb19700eeb1970033
:10282c000400be00d9f707000002be000401be0080
:10283c000a00be0072f907000002be000401be00cf
:10284c000800be00d2f707000002be000404be0060
:10285c0054848000658480006e319000fe319000bd
:10286c000400be0066f907000002be000405be00ad
:10287c0014848000258480004e399000de3990004d
:10288c000400be005ef907000002be000401be0099
:10289c000a00be00bdf707000002be000405be0022
:1028ac002e299000be2990002e209000be20900072
:1028bc00b7f707000002be006e319000fe319000a9
:1028cc000400be004ef907000002be000406be0064
:1028dc006e219000fe2190000000200001f02300ea
:1028ec00aaf707000002be004e299000de299000d6
:1028fc000400be00a5f707000002be000e399000d0
:10290c009e3990000400be003df907000002be0095
:10291c000401be000c00be009df707000002be00c3
:10292c003eb19700ceb197000400be0097f70700a8
:10293c000002be000401be000a00be0030f9070010
:10294c000002be000401be000800be0090f70700a4
:10295c000002be0004879800158798002e12900084
:10296c00be1290000404be0009f0a2002e2a9000b2
:10297c00be2a90000401be000400be0084f70700cc
:10298c000002be002e199000be1990000400be007b
:10299c007ef707000002be004e899000de89900091
:1029ac000400be0079f707000002be000401be005f
:1029bc000800be0012f907000002be000404be00ad
:1029cc000e2290009e2290000401be000400be0066
:1029dc006ff707000002be004e199000de19900040
:1029ec000400be006af707000002be003eb9970063
:1029fc00ceb997000400be0064f707000002be00c9
:102a0c000e1990009e1990000400be00fcf80700ff
:102a1c000002be000401be000800be005cf7070007
:102a2c000002be000404be00348480004584800093
:102a3c0002002000030824000400be00f0f8070088
:102a4c000002be000405be006e229000fe22900023
:102a5c000401be000400be004df707000002be00da
:102a6c000401be000000200001f8230047f7070016
:102a7c000002be000406be004e2a9000de2a900022
:102a8c000401be000400be0041f707000002be00b6
:102a9c000401be000c00be003cf707000002be00a3
:102aac001eb99700aeb997000400be0037f70700b7
:102abc000002be000401be000a00be00d0f80700f0
:102acc000002be000401be000800be002ff7070084
:102adc000002be000404be002e3a9000be3a9000e4
:102aec000403be0007f0a2003484800045848000fb
:102afc000401be000600be00c1f807000002be00c3
:102b0c000405be0094848000a58480000e399000da
:102b1c009e3990000400be00b9f807000002be0008
:102b2c000401be000a00be0018f707000002be0038
:102b3c000405be004e299000de2990000000200004
:102b4c0001f0230011f707000002be000e319000c7
:102b5c009e3190000400be000cf707000002be007e
:102b6c006e319000fe3190000400be00a4f8070006
:102b7c000002be000406be002e219000be21900073
:102b8c002e289000be28900000f707000002be001f
:102b9c000e3990009e3990000400be0098f8070092
:102bac000002be000401be000c00be00f8f60700d7
:102bbc000002be007eb197008eb997000400be00e3
:102bcc00f2f607000002be000401be000a00be00bf
:102bdc008bf807000002be000401be000800be0016
:102bec00ebf607000002be000404be001484800053
:102bfc00258480006e319000fe3190000400be00f0
:102c0c007ff807000002be000405be00548480005b
:102c1c00658480000e3990009e3990000400be003f
:102c2c0077f807000002be000401be000a00be00d7
:102c3c00d7f607000002be000405be004e2190002e
:102c4c00de2190000e2890009e289000cff6070001
:102c5c000002be006e319000fe3190000400be00f8
:102c6c0067f807000002be000406be006e29900043
:102c7c00fe2990000e2090009e209000c4f60700c4
:102c8c000002be000e3990009e3990000400be0078
:102c9c005bf807000002be000401be000c00be0081
:102cac00bbf607000002be005eb19700eeb19700c4
:102cbc000400be00b5f607000002be000401be0011
:102ccc000a00be004ef807000002be000401be0060
:102cdc000800be00aef607000002be000404be00f1
:102cec0094848000a58480006e319000fe319000a9
:102cfc000400be0042f807000002be000405be003e
:102d0c0034848000458480004e399000de39900078
:102d1c000400be003af807000002be000401be0029
:102d2c000a00be0099f607000002be000405be00b2
:102d3c002e299000be2990002e209000be209000dd
:102d4c0093f607000002be006e319000fe31900039
:102d5c000400be002af807000002be000406be00f4
:102d6c006e219000fe2190000000200001f0230055
:102d7c0086f607000002be004e299000de29900066
:102d8c000400be0081f607000002be000e39900060
:102d9c009e3990000400be0019f807000002be0026
:102dac000401be000c00be0079f607000002be0054
:102dbc003eb19700ceb197000400be0073f6070039
:102dcc000002be000401be000a00be000cf80700a1
:102ddc000002be000401be000800be006cf6070035
:102dec000002be0024879800358798002e2a900098
:102dfc00be2a90000401be000400be0064f6070069
:102e0c000002be002e199000be1990000400be00f6
:102e1c005ef607000002be004e899000de8990002d
:102e2c000400be0059f607000002be004e119000cf
:102e3c00de1190000400be00f1f707000002be0096
:102e4c000404be000e2290009e2290000401be00dd
:102e5c000400be004ef607000002be004e199000a2
:102e6c00de1990000400be0049f607000002be0007
:102e7c003eb99700ceb997000400be0043f6070098
:102e8c000002be006e119000fe1190000400be0006
:102e9c00dbf707000002be000401be000800be0004
:102eac003bf607000002be000404be002e3a900060
:102ebc00be3a90000403be0007f0a20054848000c8
:102ecc00658480000401be000600be00ccf707003c
:102edc000002be000405be0014848000258480001e
:102eec000e3990009e3990000400be00c4f7070014
:102efc000002be000401be000a00be0024f607005a
:102f0c000002be000405be004e299000de29900090
:102f1c000000200001f023001cf607000002be0098
:102f2c000e3190009e3190000400be0017f6070091
:102f3c000002be006e319000fe3190000400be0015
:102f4c00aff707000002be000406be002e21900061
:102f5c00be2190002e289000be2890000bf6070092
:102f6c000002be000e3990009e3990000400be0095
:102f7c00a3f707000002be000401be000c00be0057
:102f8c0003f607000002be007eb197008eb99700d1
:102f9c000400be00fdf507000002be000401be00e7
:102fac000a00be0096f707000002be000401be0036
:102fbc000800be00f6f507000002be000404be00c7
:102fcc006e329000fe3290000403be0007f0a200a7
:102fdc0094848000a58480000401be000600be001d
:102fec0087f707000002be000405be003484800091
:102ffc00458480000e3990009e3990000400be007c
:10300c007ff707000002be000401be000a00be00ec
:10301c00dff507000002be000405be004e21900043
:10302c00de2190000e2890009e289000d7f5070016
:10303c000002be006e319000fe3190000400be0014
:10304c006ff707000002be000406be006e29900058
:10305c00fe2990000e2090009e209000ccf50700d9
:10306c000002be000e3990009e3990000400be0094
:10307c0063f707000002be000401be000c00be0096
:10308c00c3f507000002be005eb19700eeb19700d9
:10309c000400be00bdf507000002be000401be0026
:1030ac000a00be0056f707000002be000401be0075
:1030bc000800be00b6f507000002be000404be0006
:1030cc0014848000258480006e319000fe319000c5
:1030dc000400be004af707000002be000405be0053
:1030ec002e299000be2990002e209000be2090002a
:1030fc00a7f507000002be006e319000fe31900073
:10310c000400be003ef707000002be000406be002d
:10311c006e219000fe2190000000200001f02300a1
:10312c009af507000002be004e299000de2990009f
:10313c000400be0095f507000002be000e39900099
:10314c009e3990000400be002df707000002be005f
:10315c000401be000c00be008df507000002be008d
:10316c003eb19700ceb197000400be0087f5070072
:10317c000002be000401be000a00be0020f70700da
:10318c000002be000401be000800be0080f507006e
:10319c000002be0044879800558798006e39900055
:1031ac00fe3990006e389000fe38900014f707003e
:1031bc000002be000404be000e8190009e819000af
:1031cc000e8090009e8090000df707000002be005c
:1031dc000401be000800be006df507000002be0031
:1031ec000404be002e819000be8190002e809000c1
:1031fc00be80900002f707000002be000401be0072
:10320c000800be0062f507000002be000404be0008
:10321c004e819000de8190004e809000de80900008
:10322c00f7f607000002be000401be000800be0055
:10323c0057f507000002be000400be008c04070016
:10324c000002be00040f9800150f98000e099000a4
:10325c009e0990006e389000fe389000e8f607004a
:10326c000002be00643f9800753f98000e09900064
:10327c009e0990000e8090009e809000e0f6070062
:10328c000002be0004879800158798000e09900074
:10329c009e0990002e809000be809000d8f607000a
:1032ac000002be0024879800358798000e09900014
:1032bc009e0990004e809000de809000d0f60700b2
:1032cc000002be00448798005587980074848000e3
:1032dc00858480006e399000fe3990000400be0099
:1032ec00c7f607000002be000401be001e00be00af
:1032fc0026f507000002be00048fbe007484800017
:10330c00858480000e8190009e8190000400be0098
:10331c00bbf607000002be000401be002e009000a8
:10332c00be00900019f507000002be0024079800ab
:10333c003507980074848000858480002e8190006d
:10334c00be8190000400be00adf607000002be0076
:10335c000401be004e009000de0090000bf507004b
:10336c000002be0044079800550798007484800042
:10337c00858480004e819000de8190000400be00a8
:10338c009ff607000002be000401be006e00900014
:10339c00fe009000fdf407000002be0064079800d8
:1033ac0075079800a2702d0033ca23001e00be00c2
:1033bc0093f607000002be000403be009484800054
:1033cc00a58480000401be000600be00f0f40700d6
:1033dc000002be0094848800a5848800a2702d0091
:1033ec0033ca23002e009000be00900084f6070024
:1033fc000002be000403be001484800025848000fb
:10340c000401be000600be00e1f407000002be008d
:10341c001484880025848800a2702d0033ca2300f0
:10342c004e009000de00900075f607000002be0012
:10343c000403be0034848000458480000401be0077
:10344c000600be00d2f407000002be0034848800df
:10345c0045848800a2702d0033ca23006e009000b2
:10346c00fe00900066f607000002be000403be00da
:10347c0054848000658480000401be000600be00f8
:10348c00c3f407000002be005484880065848800e1
:10349c0096848000a784800094848000a58480009a
:1034ac000401be000600be0055f607000002be0077
:1034bc000404be00168480002784800014848000dd
:1034cc00258480000401be000600be004cf60700f7
:1034dc000002be000401be000800be00acf40700f0
:1034ec000002be000404be003684800047848000c5
:1034fc0034848000458480000401be000600be00b8
:10350c003ff607000002be000401be000800be002a
:10351c009ff407000002be000404be005684800025
:10352c006784800054848000658480000401be00a0
:10353c000600be0032f607000002be000401be0009
:10354c000800be0092f407000002be000400be009a
:10355c00c70307000002be00040f9800150f980067
:10356c0094848000a58480000e0990009e09900030
:10357c000400be0022f607000002be0094848800fe
:10358c00a584880014848000258480000e09900096
:10359c009e0990000400be0019f607000002be0050
:1035ac00148488002584880034848000458480003d
:1035bc000e0990009e0990000400be0010f6070052
:1035cc000002be0034848800458488005484800046
:1035dc00658480000e0990009e0990000400be00d6
:1035ec0007f607000002be0054848800658488003a
:1035fc004f06be004f05be004f04be000080fa000f
:10360c00000006006800fa00889fbe00402f98005a
:10361c00512f9800622f9800732f98000437980050
:10362c001537980026379800373798001484800097
:10363c002584800005f0a2004e299000de29900020
:10364c000400be00eef507000002be000404be003c
:10365c0034848000458480006e299000fe299000ff
:10366c000400be00e6f507000002be000401be0027
:10367c000800be0045f407000002be000404be00b2
:10368c0054848000658480000e3190009e3190003f
:10369c000400be00daf507000002be000401be0003
:1036ac000800be0039f407000002be000200200032
:1036bc0003f023000400be00d1f507000002be0099
:1036cc00048fbe0094848000a58480004e29900055
:1036dc00de2990000400be00c9f507000002be0000
:1036ec000404be0034848000458480000e319000b8
:1036fc009e3190000400be00c1f507000002be0020
:10370c000401be000800be0021f407000002be0048
:10371c000404be0054848000658480006e299000ef
:10372c00fe2990000400be00b5f507000002be00a3
:10373c000401be000800be0014f407000002be0025
:10374c000200200003f023000400be00acf50700cb
:10375c000002be002407980035079800948480006e
:10376c00a58480006e299000fe2990000400be0004
:10377c00a3f507000002be000404be001484800000
:10378c00258480000e3190009e3190000400be0014
:10379c009bf507000002be000401be000800be003d
:1037ac00faf307000002be000404be00548480003b
:1037bc00658480004e299000de2990000400be0034
:1037cc008ff507000002be000401be000800be0019
:1037dc00eff307000002be000200200003f02300fc
:1037ec000400be0086f507000002be0044079800e6
:1037fc005507980094848000a58480000e319000b9
:10380c009e3190000400be007df507000002be0052
:10381c000404be0014848000258480006e2990006e
:10382c00fe2990000400be0075f507000002be00e2
:10383c000401be000800be00d5f307000002be0064
:10384c000404be0034848000458480004e2990001e
:10385c00de2990000400be0069f507000002be00de
:10386c000401be000800be00c8f307000002be0041
:10387c000200200003f023000400be0060f50700e6
:10388c000002be00640798007507980018c0b300ca
:10389c006011b8002e309000be309000dff40700ad
:1038ac0000027800e00f5200010032000044eb00ef
:1038bc00084278000404a200e04f52001a003a00bb
:1038cc0018c0b3006011b8003eb89700ceb897008e
:1038dc00d2f4070000027800e00f52000100320021
:1038ec000044eb00084278000404a200e04f5200b0
:1038fc000d003a0018c0b3006011b8001eb8970054
:10390c00aeb89700c5f4070000027800e00f520033
:10391c00010032000044eb00084278000404a200cd
:10392c00e04f52003c0232002e319000be3190002c
:10393c002e309000be30900031f507000002be0022
:10394c000404be003eb99700ceb997003eb897006c
:10395c00ceb897002af507000002be000401be0095
:10396c000800be008af307000002be000404be007b
:10397c001eb99700aeb997001eb89700aeb8970065
:10398c001ff507000002be000401be000800be00c7
:10399c007ff307000002be000400be00b402070063
:1039ac000002be00040f9800150f98000e0990003d
:1039bc009e0990002e309000be30900010f507004c
:1039cc000002be0024379800353798000e0990008d
:1039dc009e0990003eb89700ceb8970008f50700f6
:1039ec000002be0034bf9f0045bf9f000e0990002f
:1039fc009e0990001eb89700aeb8970000f507001e
:103a0c000002be0014bf9f0025bf9f00948480005d
:103a1c00a58480000401be000400be005cf3070016
:103a2c000002be00240f9800350f9800148480000b
:103a3c00258480000401be000400be0054f307007e
:103a4c000002be00440f9800550f9800348480008b
:103a5c00458480000401be000400be004cf3070046
:103a6c000002be00640f9800750f9800548480000b
:103a7c00658480000401be000400be0044f307000e
:103a8c000002be000417980015179800948480005b
:103a9c00a584800002002000030824000400be005e
:103aac00d7f407000002be002417980035179800c1
:103abc001484800025848000020020000308240068
:103acc000400be00cef407000002be0044179800ac
:103adc005517980034848000458480000200200033
:103aec00030824000400be00c5f407000002be0059
:103afc006417980075179800148480002584800042
:103b0c0002002000031024000400be00bcf40700d7
:103b1c000002be00041f9800151f9800348480001a
:103b2c004584800002002000031024000400be0025
:103b3c00b3f407000002be00241f9800351f980044
:103b4c0096848000a784800094848000a5848000e3
:103b5c000401be000600be00a9f407000002be006e
:103b6c00441f9800551f98001684800027848000fd
:103b7c0014848000258480000401be000600be0071
:103b8c009ff407000002be00641f9800751f980088
:103b9c003684800047848000348480004584800013
:103bac000401be000600be0095f407000002be0032
:103bbc00042798001527980056848000678480009d
:103bcc0054848000658480000401be000600be00a1
:103bdc008bf407000002be002427980035279800bc
:103bec000e2190009e2190002e109000be1090008f
:103bfc0083f407000002be000404be002e319000c6
:103c0c00be3190006e089000fe0890007cf4070016
:103c1c000002be000401be000800be00dcf207007a
:103c2c000002be000404be006e199000fe19900044
:103c3c002e109000be10900071f407000002be0020
:103c4c000401be000800be00d1f207000002be0055
:103c5c000404be003eb99700ceb997004e08900000
:103c6c00de08900066f407000002be000401be00ee
:103c7c000800be00c5f207000002be0044279800f1
:103c8c00552798002e219000be2190004e109000d8
:103c9c00de1090005af407000002be000404be00bf
:103cac002e319000be3190000e1090009e109000ae
:103cbc0053f407000002be000401be000800be0061
:103ccc00b2f207000002be000404be000200200095
:103cdc00030824004e189000de18900048f40700ea
:103cec000002be000403be00148480002584800002
:103cfc000401be000600be0041f407000002be0035
:103d0c000401be000800be00a1f207000002be00c4
:103d1c000404be003eb99700ceb997002e0890005f
:103d2c00be08900036f407000002be000401be007d
:103d3c000800be0095f207000002be004e11900074
:103d4c00de1190000400be0090f207000002be00dd
:103d5c000404be006e199000fe1990000e1890001d
:103d6c009e18900026f407000002be000401be005d
:103d7c000800be0086f207000002be000404be006c
:103d8c000e2190009e2190000e1890009e1890001d
:103d9c001bf407000002be000401be000800be00b8
:103dac007bf207000002be000404be001eb997009f
:103dbc00aeb997004e109000de10900010f4070082
:103dcc000002be000401be000800be0070f2070035
:103ddc000002be006427980075279800020020009e
:103dec00030824004e189000de18900004f407001d
:103dfc000002be000403be003484800045848000b1
:103e0c000401be000600be00fdf307000002be0068
:103e1c000404be002e319000be3190002e0890009c
:103e2c00be089000f6f307000002be000401be00bd
:103e3c000800be0056f207000002be000404be00db
:103e4c002e219000be2190006e109000fe1090006c
:103e5c00ebf307000002be000401be000800be0028
:103e6c004bf207000002be000404be003eb99700ee
:103e7c00ceb997000e1090009e109000e0f3070052
:103e8c000002be000401be000800be003ff20700a5
:103e9c000002be006e119000fe1190000400be00e6
:103eac003af207000002be000404be006e19900036
:103ebc00fe1990002e189000be189000d0f3070049
:103ecc000002be000401be000800be0030f2070074
:103edc000002be000404be000e2190009e21900042
:103eec002e189000be189000c5f307000002be000b
:103efc000401be000800be0025f207000002be004f
:103f0c000404be001eb99700aeb997006e10900065
:103f1c00fe109000baf307000002be000401be00c0
:103f2c000800be001af207000002be00042f980021
:103f3c00152f980002002000030824006e18900032
:103f4c00fe189000aef307000002be000403be0092
:103f5c0054848000658480000401be000600be000d
:103f6c00a7f307000002be000404be002e3190002f
:103f7c00be3190004e089000de089000a0f30700c0
:103f8c000002be000401be000800be00fff10700e5
:103f9c000002be000404be0002002000030824003e
:103fac000e2090009e20900095f307000002be00aa
:103fbc000403be0054848000658480000401be00ac
:103fcc000600be008ef307000002be000401be0016
:103fdc000800be00eef107000002be000404be00a3
:103fec003eb99700ceb997006e089000fe0890007d
:103ffc0083f307000002be000401be000800be00ef
:10400c00e2f107000002be00242f9800352f980023
:10401c004e219000de2190004e209000de2090007a
:10402c0077f307000002be000404be006e2190006e
:10403c00fe2190006e209000fe20900070f307008f
:10404c000002be000401be000800be00d0f1070053
:10405c000002be000404be000e2990009e299000b0
:10406c000e2890009e28900065f307000002be0009
:10407c000401be000800be00c5f107000002be002e
:10408c000404be002e299000be2990002e2890001a
:10409c00be2890005af307000002be000401be00c7
:1040ac000800be00baf107000002be000400be000a
:1040bc00ef0007000002be00040f9800150f9800d7
:1040cc000e0990009e0990004e209000de2090007a
:1040dc004bf307000002be004427980055279800b8
:1040ec000e0990009e0990006e209000fe2090001a
:1040fc0043f307000002be00642798007527980060
:10410c000e0990009e0990000e2890009e289000a9
:10411c003bf307000002be00042f9800152f9800f7
:10412c000e0990009e0990002e289000be28900049
:10413c0033f307000002be00242f9800352f98009f
:10414c0074848000858480004e219000de219000d4
:10415c000400be002af307000002be000401be00ea
:10416c001e00be0089f107000002be00048fbe00d5
:10417c0074848000858480006e219000fe21900064
:10418c000400be001ef307000002be000401be00c6
:10419c002e009000be0090007cf107000002be00d3
:1041ac00240798003507980074848000858480006b
:1041bc000e2990009e2990000400be0010f3070009
:1041cc000002be000401be004e009000de00900014
:1041dc006ef107000002be004407980055079800d6
:1041ec0074848000858480002e299000be29900064
:1041fc000400be0002f307000002be000401be0072
:10420c006e009000fe00900060f107000002be00fe
:10421c006407980075079800a2702d0033ca23001c
:10422c001e00be00f6f207000002be000403be0032
:10423c0094848000a58480000401be000600be00aa
:10424c0053f107000002be0094848800a584880006
:10425c00a2702d0033ca23002e009000be009000e7
:10426c00e7f207000002be000403be0014848000c5
:10427c00258480000401be000600be0044f1070046
:10428c000002be001484880025848800a2702d00d2
:10429c0033ca23004e009000de009000d8f20700d5
:1042ac000002be000403be003484800045848000fc
:1042bc000401be000600be0035f107000002be007e
:1042cc003484880045848800a2702d0033ca2300f2
:1042dc006e009000fe009000c9f207000002be00c4
:1042ec000403be0054848000658480000401be0079
:1042fc000600be0026f107000002be0054848800b0
:10430c006584880096848000a78480009484800053
:10431c00a58480000401be000600be00b8f20700b0
:10432c000002be000404be001684800027848000b6
:10433c0014848000258480000401be000600be00a9
:10434c00aff207000002be000401be000800be0070
:10435c000ff107000002be000404be00368480008a
:10436c004784800034848000458480000401be00b2
:10437c000600be00a2f207000002be000401be004f
:10438c000800be0002f107000002be000404be00db
:10439c00568480006784800054848000658480008b
:1043ac000401be000600be0095f207000002be002c
:1043bc000401be000800be00f5f007000002be00bc
:1043cc000400be002a0007000002be00040f980083
:1043dc00150f980094848000a58480000e0990002d
:1043ec009e0990000400be0085f207000002be008a
:1043fc0094848800a584880014848000258480001f
:10440c000e0990009e0990000400be007cf207008b
:10441c000002be0014848800258488003484800047
:10442c00458480000e0990009e0990000400be0097
:10443c0073f207000002be003484880045848800b3
:10444c0054848000658480000e0990009e099000c1
:10445c000400be006af207000002be00548488000b
:10446c00658488004f04be000080fa00000006003e
:10447c001600fa00100f9800210f9800b4848000e9
:10448c00e00f52003c003a001e0a9000ae0a900069
:10449c000200200003f023000400be0058f20700c5
:1044ac000002be00048fbe001e0a9000ae0a9000ef
:1044bc004407980055079800680247001402be0094
:1044cc0064079800750798006e029000fe02900039
:1044dc008582d1000482d300f69d250077f3250058
:1044ec000402530085825b006407980075079800ee
:1044fc006c0247001402be00440798005507980050
:10450c004e029000de0290001e01be000400be00b0
:10451c003bf207000002be000403be004e029000f6
:10452c00de0290000401be000600be0034f207005b
:10453c000002be000401be000000200001fc2300ac
:10454c0092f007000002be000403be004e02900071
:10455c00de0290000401be000600be0028f2070037
:10456c000002be0044079800550798004e029000c8
:10457c00de02900033003700b4848000e10f52005b
:10458c0026003a0072024700140278000402d1009f
:10459c002541210004825200040f9800700247004c
:1045ac001403be0026079800370798001e0a9000d7
:1045bc00ae0a900022312d0063f323000400be00ec
:1045cc000ff207000002be002e019000be01900009
:1045dc000400be000af207000002be002e0190008b
:1045ec00be0190000400be0005f207000002be00f0
:1045fc000401be00f01f250081fd230063f00700bd
:10460c000002be002e019000be0190000400be000e
:10461c00fbf107000002be000a0037001e0a9000e2
:10462c00ae0a90000400be0029f207000002be0092
:10463c000401be000000200001f8230035f1070042
:10464c000002be000400be000080fa00000006005c
:10465c000600fa00004f7800110798002207980016
:10466c000af0070041f00700000000003410800041
:10467c0061026200e00f5200fcff3a001e02900043
:10468c0004024200044278000440780019f007004c
:10469c00000000004410800061026200e00f520034
:1046ac00fcff3a00000000004510800004002800c8
:1046bc0004826200e00f5200fbff3a002e029000d1
:1046cc0004427800044078000af007000000000063
:1046dc00451080000400280004826200e00f5200a4
:1046ec00fbff3a001e4278000440780001f00700fe
:1046fc0000000000451080000400280004826200c5
:10470c00e00f5200fbff3a001cf007000080fa009b
:10471c00000006000600fa00100798002107980018
:10472c000042eb00044f7800d8ef07000ff00700b1
:10473c00000000003410800061026200e00f5200a3
:10474c00fcff3a001e029000040242000442780072
:10475c0004407800e7ef07000000000044108000e0
:10476c0061026200e00f5200fcff3a000000000002
:10477c00451080000400280004826200e00f520003
:10478c00fbff3a002e0290000442780004407800af
:10479c00d8ef07000000000045108000040028003e
:1047ac0004826200e00f5200fbff3a00efef0700bb
:1047bc00000000003410800061026200e00f520023
:1047cc00fcff3a001e0290000402420004427800f2
:1047dc000404a00004407800c6ef070000000000ad
:1047ec00451080000400280004826200e00f520093
:1047fc00fbff3a00b7ef070000427800044f780047
:10480c00d0ef0700ddef070000000000341080003f
:10481c0064026200e00f5200fcff3a001e42780076
:10482c00044078000080fa00000006000a00fa003c
:10483c00100798002107980032079800430798004a
:10484c0092ef0700c9ef0700000000003410800051
:10485c0061026200e00f5200fcff3a003e02900041
:10486c00040242000442780004407800a1ef0700e3
:10487c00000000004410800061026200e00f520052
:10488c00fcff3a00000000004510800004002800e6
:10489c0004826200e00f5200fbff3a004e029000cf
:1048ac00044278000440780092ef070000000000fa
:1048bc00451080000400280004826200e00f5200c2
:1048cc00fbff3a00a9ef0700000000003410800045
:1048dc0061026200e00f5200fcff3a003e029000c1
:1048ec0004024200044278000404a0000440780052
:1048fc0080ef070000000000451080000400280035
:10490c0004826200e00f5200fbff3a000002eb0051
:10491c00040f78000f0037006eef0700004278009c
:10492c009e029000844a78001e0290000402e80067
:10493c00140798000228a9004fef070000000000a0
:10494c001440800062026200e00f5200fcff320053
:10495c001e0fe8002e0290000402e9009e0f520088
:10496c00edff3c005bef0700004278009e029000d8
:10497c00844a78001e0290000402e8001407980094
:10498c0070ef07007def070000000000341080007e
:10499c0064026200e00f5200fcff3a000080fa0053
:1049ac00000006000000fa00b2062000810620007c
:1049bc0010c0b30026ff0700b201200081062000c2
:1049cc0080c0b30022ff0700c20120008106200036
:1049dc000040eb001eff070051072000800620005e
:1049ec004cff07000042780085c6b300854f52008b
:1049fc0002003a0014002000010037000002eb0016
:104a0c00040078000080fa00000006000200fa00a2
:104a1c00000f7800c005210007000700a006210048
:104a2c000e0007009e007800c00521001f00070043
:104a3c000080fa00000006000200fa00000f780067
:104a4c00b303200082062000e10020001e00780045
:104a5c0076ff07000080fa00000006000200fa0052
:104a6c00000f7800720320008106200020c0b300e4
:104a7c00f7fe0700a2002000c100200010c0b30008
:104a8c00f3fe070000e62a00a10020000305070042
:104a9c0033002000c2002000610020001e007800be
:104aac0062ff07000080fa00000006001600fa0002
:104abc00100f9800210f98001e0a900014427800e5
:104acc000482fb00c822dd001e0a90000402e800ec
:104adc00144278000482fb0005027200040f780077
:104aec001e0a90000482e800144278000482fb0045
:104afc00c822dd001e0a90006302420014427800b6
:104b0c000482fb0005027200140798001e0a900034
:104b1c0064024200144278000482fb00c822dd00cb
:104b2c001e0a900065024200144278000482fb00c9
:104b3c0005027200240798001e0a900068024200c9
:104b4c00144278000482fb00c822dd001e0a90008b
:104b5c0069024200144278000482fb0005027200d4
:104b6c00340798001e0a90006a0242001442780032
:104b7c000482fb00c822dd001e0a90006b0242007a
:104b8c00144278000482fb0005027200440798006e
:104b9c001e0a90006c024200144278000482fb0052
:104bac00c822dd001e0a90006d02420014427800fb
:104bbc000482fb0005027200540798001e0a900044
:104bcc006f024200144278000482fb00c822dd0010
:104bdc001e0a90006e024200144278000482fb0010
:104bec0005027200640798001e0a900071024200d0
:104bfc00144278000482fb00c822dd001e0a9000db
:104c0c0070024200144278000482fb00050272001c
:104c1c00740798001e0a9000730242001442780038
:104c2c000482fb00c822dd001e0a900072024200c2
:104c3c00144278000482fb0005027200040f9800f5
:104c4c009e0278008483800004824200040f780066
:104c5c009e02900094838000048242001407980006
:104c6c00ae029000a48380000482420024079800c6
:104c7c00be029000b4838000048242003407980086
:104c8c00ce029000c4838000048242004407980046
:104c9c00de029000d4838000048242005407980006
:104cac001e027800cfa2de000400be00feef07005b
:104cbc000002be0002002000036824000400be00b5
:104ccc0094ef07000002be002e0b9000048bbe0078
:104cdc002e0a900064024200240f98001e029000dd
:104cec00cfa2de000400be00efef07000002be0002
:104cfc0002002000036824000400be0085ef0700ba
:104d0c000002be002e0b9000048bbe002e0a9000f9
:104d1c0064024200240f98002e029000cfa2de0005
:104d2c000400be00e0ef07000002be0002002000fd
:104d3c00036824000400be0076ef07000002be00ea
:104d4c002e0b9000048bbe002e0a900064024200d1
:104d5c00240f98003e029000cfa2de000400be009b
:104d6c00d1ef07000002be00a25e2700b39823001b
:104d7c000400be0022f007000002be002e0b9000c3
:104d8c00048bbe002e0a900064024200240f98008f
:104d9c004e029000cfa2de000400be00c2ef07005e
:104dac000002be00a25e2700b39823000400be00e0
:104dbc0013f007000002be002e0b9000048bbe0007
:104dcc002e0a900064024200240f98005e029000ac
:104ddc00cfa2de000400be00b3ef07000002be004d
:104dec00a25e2700b39823000400be0004f0070065
:104dfc000002be002e0b9000048bbe002e0a900009
:104e0c0064024200240f98007e029000cfa2de00c4
:104e1c000400be00a4ef07000002be00a299290006
:104e2c0093e923000400be00f5ef07000002be006a
:104e3c002e0b9000048bbe002e0a900064024200e0
:104e4c00240f98006e029000cfa2de000400be007a
:104e5c0095ef07000002be00a299290093e92300f8
:104e6c000400be00e6ef07000002be002e0b90000f
:104e7c00048bbe002e0a900064024200240f98009e
:104e8c000e0a90000402ea00cfa2de000400be006d
:104e9c0085ef07000002be00a299290093e92300c8
:104eac000400be00d6ef07000002be002e0b9000df
:104ebc00048bbe002e0a900064024200240f98005e
:104ecc000080fa00000006001600fa00700047008f
:104edc00020009000018eb000002eb00040f780040
:104eec002500370000cc250051012000eb03070002
:104efc000e82e80004007800cffe07000e0a900036
:104f0c00840278002e4a90000482fb004823dd00c6
:104f1c003e4a90000482fb000602720004824200aa
:104f2c00040f98001e0a9000840278004e4a9000ec
:104f3c000482fb004823dd005e4a90000482fb00e3
:104f4c000602720004824200140f98002e0a900090
:104f5c00840278006e4a90000482fb004823dd0036
:104f6c007e4a90000482fb0006027200048242001a
:104f7c00240f98001e0fe800340620009e027800d3
:104f8c00848f5200d7ff34008e0a90004406200014
:104f9c00110009008402d80000027800040f980068
:104fac009e0a900044062000110009008402d800db
:104fbc0000027800140f9800ae0a900044062000fe
:104fcc00110009008402d80000027800240f980018
:104fdc000e0a90000402ea00b48388001e0a9000b6
:104fec000402ea00c48388002e0a90000402ea003e
:104ffc00d48388000080fa00000006004200fa000a
:10500c00889fbe000027980064024700259928005d
:10501c0011000900351a7800746821001504240069
:10502c00441798005517980094c22500b50c24001d
:10503c00641798007517980044352e00d51324007a
:10504c00041f9800151f98006022b800241f9800b8
:10505c00351f98006022b800441f9800551f980017
:10506c006022b800641f9800751f98000002eb00c6
:10507c00040f7800140037001e0278004222dd0075
:10508c008e229000048442001e0278004222dd0031
:10509c008e229000048242001403be001e0278008f
:1050ac004222dd008402b000040247001402be005c
:1050bc000401be000600be00b4ed07000002be00f5
:1050cc00048cbe001e0fe8001e027800e20f520096
:1050dc00e9ff34000002eb00040f78002a003700cf
:1050ec000002eb0014079800230037001e02780022
:1050fc004222dd004403b000040247001404be0049
:10510c001e027800e322b900840278001e0290008f
:10511c00048242004222dd00640242000402470085
:10512c001403be001e0290004222dd008e2290006d
:10513c00048242001402be000401be000600be0040
:10514c002fef07000002be000401be000800be00e5
:10515c008fed07000002be001e0378004233dd0015
:10516c004603b00006034700048bbe001e029000ed
:10517c000402e800140798001e029000e20f52008f
:10518c00daff34001e0fe8001e027800e20f520016
:10519c00d3ff34000002eb00040f78000b00370043
:1051ac001e0278004222dd008e2290000483420011
:1051bc001e0278004222dd004403b00004024700c6
:1051cc001402be00048bbe001e0fe8001e02780005
:1051dc00e20f5200f2ff34004f04be000080fa00d0
:1051ec00000006000000fa00160007001f00070070
:1051fc005300070014cea80000d82100c1422000a3
:10520c002603070014cea90078000700e5fd07006f
:10521c0000027800e00f520004003200110120005f
:10522c00e09528007b0007000300370011022000e6
:10523c000097280077000700190107000080fa008a
:10524c00000006000000fa000002eb0074708800f9
:10525c000002eb00f470880010cea900114ea900da
:10526c0011eea8000080fa00000006000000fa0011
:10527c00153a8000f4fb2f000483620064042000c4
:10528c007505200027742000844b7800854b78002e
:10529c00864b78002536800004f82f00848262004b
:1052ac00f402200005027200243688004534800088
:1052bc0004fc2f00048262000400a0004434880027
:1052cc00153a8000040420000403780005037300e1
:1052dc00640420007505200027742000844b78009e
:1052ec00854b7800864b78000080fa0000000600a1
:1052fc000000fa0005e1a900040128002408880038
:10530c00054280000400210005027200044288005e
:10531c00e4222200140888000068a90004428000de
:10532c0004c0a00004d0a10004e0a0000442880046
:10533c002068a80005e1a8000080fa000000060023
:10534c000000fa0021e2a90021a2a9002182a900f3
:10535c002162a900041180000480a1000490a10026
:10536c000411880020e2a90020c2a90020a2a900f3
:10537c002062a900041180000410a1000420a100e7
:10538c00041188002002a900540220004411880056
:10539c0023c2a90023a2a9002362a9002342a900c9
:1053ac00141180000460a1000470a1001411880085
:1053bc0022a2a9002442800004c0a10004d0a000b5
:1053cc0004e0a000244288000168a9002168a8001c
:1053dc0021e2a8002342a80000fc2c00a10620001a
:1053ec00ae0207000080fa00000006000400fa007c
:1053fc00642d2000040f780004222c001407980060
:10540c009e0078001e009000d3ec07000080fa008c
:10541c00000006000600fa0010079800210798000b
:10542c000002eb00040f7800120037001e029000ff
:10543c0014427800e04f5200130032001e0290001c
:10544c00144278000402fb00241188001e02900014
:10545c000402e800140798000000000015118000f9
:10546c000420200004826200e00f5200fbff3a008f
:10547c001e0fe8002e0290009e027800848f5200ce
:10548c00eaff35000100370000000000d4002000c6
:10549c002411880000000000151180000420200059
:1054ac0004826200e00f5200fbff3a00a4002000cf
:1054bc00241188000080fa00000006000600fa00a3
:1054cc0010079800210798000002eb00040f7800e9
:1054dc000e0037001e029000144278000402fb00fc
:1054ec00241188001e0290000402e80014079800a2
:1054fc0000000000151180000420200004826200ce
:10550c00e00f5200fbff3a001e0fe8002e02900045
:10551c009e027800848f5200eeff35000080fa0066
:10552c00000006000200fa00000f78000b003700a4
:10553c001e027800144278000402fb00241188003b
:10554c001e0fe80000000000151180000420200050
:10555c0004826200e00f5200fbff3a001e0278004a
:10556c0014427800e04f5200f1ff3a000080fa003c
:10557c00000006000c00fa00400798005107980044
:10558c000002eb00040f7800300037004e02900050
:10559c00ce029000e4824200450798000400780097
:1055ac00300007000002be00140798002507980081
:1055bc001e029000ae029000482ade0004427800e1
:1055cc006447980066024700110020000400780030
:1055dc00baff07001e029000ae02900040aade0047
:1055ec00cfa2de00044278006447980066024700b0
:1055fc001100200004007800b0ff07001e0290008c
:10560c00ae029000482bdd004822de00040273003d
:10561c00c8aade000442780064479800660247007e
:10562c001100200004007800a4ff07001e02900067
:10563c00044278006447980066024700110020007d
:10564c00040078009dff07001e0fe8005e0290002a
:10565c009e027800848f5200ccff35000080fa0047
:10566c00000006000200fa00000f78001e0278000d
:10567c001402be0002002000a34724000400be0058
:10568c00dfed07000002be000400be0065ed070060
:10569c000002be000400be000080fa0000000600fc
:1056ac001200fa000e007800e3fc07006c024700c1
:1056bc0004007800e9fc07000e02780011002000bd
:1056cc00040078007dff07000e0278000402e80059
:1056dc0011002000040078004eff07000e02780035
:1056ec000482e800110020000400780073ff07001a
:1056fc000e027800630242001100200004007800c2
:10570c0044ff07000e0278006402420011002000e2
:10571c000400780069ff07000e0278006502420061
:10572c0011002000040078003aff07000e027800f8
:10573c006602420011002000040078005fff0700a1
:10574c000e0278006702420011002000040078006d
:10575c0030ff07000e0278006802420011002000a2
:10576c000400780055ff07000e0278006902420021
:10577c00110020000400780026ff07000e027800bc
:10578c006a02420011002000040078004bff070061
:10579c000e0278006b024200110020000400780019
:1057ac001cff07000e0278006c0242001100200062
:1057bc000400780041ff07000e0278006d024200e1
:1057cc00110020000400780012ff07000e02780080
:1057dc006e024200110020000400780037ff070021
:1057ec000e0278006f0242001100200004007800c5
:1057fc0008ff07000e027800700242001100200022
:10580c00040078002dff07000e02780071024200a0
:10581c001100200004007800fefe07000080fa0052
:10582c00000006000400fa00008fbe0002002000f9
:10583c00433324001e00be0071ed07000002be00c1
:10584c00b2fd2000930424000400be00b1ec07005c
:10585c000002be000400be000080fa00000006003a
:10586c001400fa00889fbe008a9fbe008c1f78002f
:10587c00000f9800110f98000e0a90001403be0040
:10588c000e0a90001402be000401be000600be0009
:10589c005bed07000002be00048fbe000e0a9000f4
:1058ac00640242001403be000e0a9000640242001f
:1058bc001402be000401be000600be0050ed07003d
:1058cc000002be0024079800350798000e0a9000cd
:1058dc00680242001403be000e0a900068024200e7
:1058ec001402be000401be000600be0044ed070019
:1058fc000002be0044079800550798000e0a90005d
:10590c006c0242001403be000e0a90006c024200ae
:10591c001402be000401be000600be0038ed0700f4
:10592c000002be0064079800750798004e019000b5
:10593c00de0190002e009000be00900093eb07005b
:10594c000002be006e019000fe0190000400be003b
:10595c008eeb07000002be001e01be000400be005c
:10596c008beb07000002be000404be000e0a900080
:10597c00640242001403be000e0a9000680242004a
:10598c001402be000401be000600be001ced0700a0
:10599c000002be000405be000e0a90006c0242001c
:1059ac001403be000e0a90001402be000401be00d7
:1059bc000600be0012ed07000002be000401be008e
:1059cc000a00be0072eb07000002be000401be001c
:1059dc000400be006eeb07000002be000801be0012
:1059ec000400be00c9eb07000002be001e0b9000b5
:1059fc00048bbe001e0a9000640542000e0a900043
:105a0c00640242001403be000e0a90006c024200b5
:105a1c001402be000401be000600be00f8ec070034
:105a2c000002be000404be000e0a90006802420090
:105a3c001403be000e0a90001402be000401be0046
:105a4c000600be00eeec07000002be000401be0022
:105a5c000800be004deb07000002be000200200053
:105a6c0003002c000400be00e5ec07000002be00a1
:105a7c000400be00a3eb07000002be00048dbe00b4
:105a8c001e0a9000680642002e029000be02900092
:105a9c0005f0a2004e019000de0190000400be0053
:105aac003aeb07000002be006e019000fe01900070
:105abc000400be0036eb07000002be001e01be0053
:105acc000400be0032eb07000002be000404be005e
:105adc000e0a9000680242001403be000e0a9000e9
:105aec006c0242001402be000401be000600be009f
:105afc00c3ec07000002be000405be000e0a9000b5
:105b0c00640242001403be000e0a90001402be0090
:105b1c000401be000600be00b9ec07000002be0086
:105b2c000401be000a00be0019eb07000002be0013
:105b3c000401be000400be0015eb07000002be000d
:105b4c000801be000400be0070eb07000002be009e
:105b5c00048ebe004f0678004f05be004f04be00f9
:105b6c000080fa00000006003c00fa00889fbe008e
:105b7c008a9fbe008c9fbe00d600070099fd0700cf
:105b8c0010cea90014cea900e1002000609b2800d3
:105b9c0020fe0700a47080004622de0061426200f5
:105bac0004c2ea00614262000482fb0061026200ee
:105bbc004622dd00a6708000f5fb2f0085026300f5
:105bcc0005027200a4708800c4848000e00f5200ab
:105bdc003800320092848000a384800010848000fe
:105bec0021848000368480004784800054848000a7
:105bfc00658480002217980033179800401798008e
:105c0c00511798006617980077179800041f980092
:105c1c00151f9800440220000e024200c10321000f
:105c2c00040078000eff0700e4818000f5818000fd
:105c3c000400be00fbfe07000003be00648280006f
:105c4c00758280000401be000600be00cfea07008a
:105c5c000002be00e4818800f58188000482800087
:105c6c00158280000400be00eefe07000002be009c
:105c7c00048288001582880024828000358280008e
:105c8c000400be00e7fe07000002be00248288006c
:105c9c003582880031002000c003210035fe07004a
:105cac000002eb00c48488001400200044828800a9
:105cbc0012003700d4848000e00f5200060032003e
:105ccc000002eb00d484880014cea8007efc0700f0
:105cdc0014cea90009003700e4848000e00f5200c4
:105cec0006003200e4818000f58180006482880027
:105cfc00758288000002eb00e484880055828000e5
:105d0c0074252000848f520008003c0054828000cf
:105d1c000402e8005482880004002000050a2400d4
:105d2c00748488008584880004003700e4f92e0010
:105d3c0075d2230074848800858488000e00780056
:105d4c0032fb07007802470004007800abfc070028
:105d5c000e1290009e1290006e0b9000fe0b9000a5
:105d6c00261f9800371f98004e0b9000de0b9000fa
:105d7c00461f9800571f98004e069000de069000b4
:105d8c002e059000be0590001e03be002e0c900048
:105d9c00be0c90000e0990009e0990006e009000c1
:105dac00fe009000849fbe002e1a9000be1a900038
:105dbc00849fbe004e1a9000de1a9000849fbe0095
:105dcc008c9fbe008a9fbe000802be006ced0700cf
:105ddc00f487570044828000e00f52000600320026
:105dec0000a12700710020002c0007000002eb002e
:105dfc004482880067ff370000b82800810020002b
:085e0c002600070063ff3700c8
:020000040000fa
:105e14009810000006000000800000000010000040
