:020000040000fa
:080000000002040000000000f2
:020000040000fa
:1000080000030000080300002c0300001003000098
:10001800180300002003000030030000280300003c
:10002800280300002803000028030000280300001c
:10003800280300002803000028030000280300000c
:10004800280300002803000028030000d202000053
:1000580028030000280300002803000028030000ec
:1000680028030000280300002803000028030000dc
:1000780028030000280300002803000028030000cc
:1000880028030000280300002803000028030000bc
:020000040000fa
:100400002f1621000eff24000e01880000000000be
:10041000000020000000e000020032000001200087
:10042000200288000c000700e09d21000100200050
:100430000f000700000020000000e0000200320072
:100440000000020000000000c61a020000000000c8
:100450000040da000000fe00800420000000e00000
:1004600002003200002020009001880000000600f9
:10047000a1028800800078000000eb001a0037001d
:10048000e280400054a0b4009101ba00e280400034
:1004900054a0b4009102ba00e280400054a0b4001d
:1004a0000002eb00472bde00f507b200a601880032
:1004b000602ce10008003a000049eb000201e8006e
:1004c000020039003420ec0002f0a0008301e900b2
:1004d000f9ff3e00040037006128e100010032000e
:1004e0000082eb00040007001101ba000200e000e6
:1004f000e3ff3a000000060004d0a300e20f490029
:100500001c003900810278003549ba000201e80078
:10051000020039003420ec0002f0a0008301e90061
:100520000f0032002549ba000201e800020039003c
:100530003420ec0002f0a0008301e9000800320042
:100540000400e0000600320015c9ba000201e8000c
:10055000020039003420ec0002f0a0008301e90021
:100560008180e80054a0b4000300e000e2ff3a00fc
:10057000000006009102ba00055978008301e900e5
:10058000f7ff3200c82ade00055978008301e90030
:10059000f3ff32000400e000f1ff320011d9ba008d
:1005a000eeff3700801f7800849fbe000200fa0033
:1005b00034118000044f780014c3b3009e427800c9
:1005c00084cf520003003a001400200014838800f6
:1005d0000600370034c3b3009e42780084cf520037
:1005e00002003a0014002000248388000168a9005a
:1005f0000080fa004f02be004f0078000040060065
:10060000801f78000000fa00c028a900ffff370013
:10061000801f78000000fa00c068a900ffff3700c3
:10062000801f78000000fa00c048a900ffff3700d3
:10063000801f78000000fa00c088a900ffff370083
:10064000801f78000000fa00c0a8a900ffff370053
:100650000000fa00ffff37000000fa00ffff37003c
:100660000000fa00ffff37000a00fa00e20f500016
:1006700022003e00048b8000e10f52000600320091
:100680008723200046232000242320000523200068
:10069000e08f530004003a00872220004622200009
:1006a0002422200005222000000028001500600000
:1006b00003003a00800b780007002800958a730039
:1006c000054020009482620001003a0014a0a000be
:1006d0008202780006003700940378000710b20009
:1006e000fdff3200b103fb00070b78008502e90033
:1006f000e08f5200f8ff3a00080037003400200075
:100700001007980032079800040f7800210798001e
:100710000e007800970507003e0190000200780067
:100720000080fa00000006000000fa0006a2a900fe
:100730000682a8000080fa00000006000000fa000f
:10074000040024000602ab00feff3a000642ab00a4
:10075000fcff3a000662ab00faff3a000622ab004b
:10076000f8ff3a000682ab00f6ff3a004610800020
:1007700086026200e08f5200f2ff3a000080fa0029
:10078000000006000000fa000662a8000662ab0046
:10079000feff3a0008c2a900001080000080fa00a5
:1007a000000006000000fa000080fb001010880026
:1007b000441080000408b20000c0eb000b003a00b7
:1007c000040024004610800086026200e08f520080
:1007d000fcff3a00d9ff0700000028000802b6001d
:1007e000e00f500001003200e0cfb3000080fa00bb
:1007f000000006000000fa0006a2a8000682a80079
:100800000080fa00000006000000fa0021108800b5
:10081000301088000080fa00000006000000fa0096
:100820000602a8000080fa00000006000000fa009e
:100830000642a8000080fa0000000600889fbe0063
:100840008a9fbe008c1f78009d000700a400330023
:1008500003866c006450e1002e0032006420e10049
:10086000330032006150e1002f0032006120e100ce
:100870003100320085855500eb07b00009002000eb
:1008800008042000050037000804440089844c0057
:100890000a0031000603430087834b000001530028
:1008a00081815b00f8ff33000203be000800a00056
:1008b0000804440089844c00f6ff3900c639dd0085
:1008c0008301730001003200130020008904d1006d
:1008d0000884d3000998a300050032000800a7008f
:1008e0000300a0008904d1000884d3008b05e80030
:1008f0008904d1000884d3000001eb000281d200fa
:100900003400070001f0a1000cf0a70001f0a000e6
:100910007c0037006420e1007e0032000801be0048
:100920000200be00f7ff37006120e10079003200cd
:100930006000b800f3ff37000000200001f8270036
:10094000f0ff37000001be00480007000470a70058
:1009500003f0a1006509b100160032000d0035005a
:100960006828e10006003500f0ff2f00f1ff2700a6
:100970000300e00013003b00010028000000050018
:1009800000004000818048008502e900fcff3a0039
:1009900008003700f88f420002003c008000eb00a6
:1009a000000005008100d1000080d3008502e8002e
:1009b000fcff3a000300e00002003b006000100072
:1009c000e0801800000006004f89de0082017800f8
:1009d0008700370081002000618055000b003d003a
:1009e0000b00200061fe2f000100e1001d0034001b
:1009f00082817100610164008904d1000884d30000
:100a00000000e800faff3a00710020006100640075
:100a1000030070000200600009003200610444001d
:100a2000e0844c000988a500050032008b05e80031
:100a30006808e10002003a008904d1000884d3006c
:100a4000f20f20000258e10005003d00c75ddd0007
:100a5000f907b200898075000800780000000600e0
:100a60000bf827008b00780000000500c70ade00a5
:100a7000f107b200f50fb20008003200e1cf4200ea
:100a8000020032000170a00024000500810f7000f8
:100a9000010032000408050044000500810f7000c9
:100aa00002003a00140005008502e9000000400041
:100ab00081c04800fcff3b000170a000240005003d
:100ac0000004be00e9ff07000003be000405be00ed
:100ad0000200be00e5ff0700844f7500000006001d
:100ae0000200be006450e100050036006420e10011
:100af000020036000968a30001003a000800be00a9
:100b00000160a0004f0678004f05be004f04be00f4
:100b100000000600f0ff2f00f1ff2700f9ff37006b
:100b2000889fbe008a9fbe008c1f7800e4ff0700ec
:100b3000ebff330003866c006450e10024003200b8
:100b40006420e100270032006150e1002200320001
:100b50006120e100210032008b854200eb07b100eb
:100b60000134b800003ab8000804420089844a0001
:100b7000013ab8000030b8008880400009014a00fe
:100b80000400330000004000818048000201490059
:100b90008b05e900c909dd00830170000100320006
:100ba00013002000c814de004814dd004709de00f1
:100bb0001200b200c808de000884700085ff07003c
:100bc00001f0a1000cf0a70001f0a000cdff37005c
:100bd0006120e100cfff32000801be000200be002c
:100be000f7ff37006150e100fcff3a00c9ff370012
:100bf000881f7800030478000300e00007003d0030
:100c000060001000e080180060011900e081190008
:100c100002003b0001f02d00030037000400070034
:100c200008f0a70001f0a0004f04780000000600c3
:100c3000889fbe008a9fbe0000827000040271007f
:100c400004827100260032000004be000200be00d3
:100c50006011b8006b092000950220000182cf00ce
:100c60000a0039000541b1000082cf0007003900b9
:100c70000541b1000982cf00040039000541b100ef
:100c80000882cf00010039000541b1000542520041
:100c9000120032000a003b00828171006101640091
:100ca0008100d1000080d3008984d3000884d30060
:100cb0008b05e8000442e800f7ff3a000700370020
:100cc0000804440089844c000000480081804800ea
:100cd0008b05e9000442e900f9ff3a003dff0700f7
:100ce0004f05be004f04be00000006000c00fa00d5
:100cf000889fbe00f4ff2700000478005407980086
:100d00008004eb00080f7800190798002807980066
:100d1000240c20006801570034079800ceb89700d3
:100d20000e007800060007001e027800094a7800cd
:100d30001e0014004f04be000080fa0000000600f0
:100d40003a00fa00889fbe00011798008a9fbe00f3
:100d5000421798008c9fbe00800678000000eb00d0
:100d600060179800720337008e10900054c2b300d1
:100d70008100e80001179800844f500006003a00f7
:100d8000010278000006eb0001c3b30000c2b3000b
:100d9000b7c2b300100037003d0290000404b20057
:100da000040032001d027800004a7800840ee8003a
:100db000050037000000fb008d0078006703070086
:100dc000e10f40005a0332006e1190000201e8006a
:100dd000621798005603370084027800d3c2b3002c
:100de00034437800834f53000900320005003c0073
:100df000804f530008003200874f53000c003a0028
:100e000007003700814f530009003a000600370001
:100e10000c30a000f0ff37000c00a000eeff370000
:100e20000c10a000ecff37000c20a000eaff3700f8
:100e300062026600010032000c00a1006802660038
:100e4000010032000c20a1000602fb000403b100e7
:100e5000e90f52000c003e00050378000002eb0091
:100e6000b602fb00ea22b9000503b1009603fb00bd
:100e7000048242000703b10086027800e98f530024
:100e8000f7ff3600080037000002eb00a7c2b300ee
:100e9000874f530004003a004e1390008502e8008b
:100ea00046027800461798008003eb00e6c2b300c4
:100eb00057179800954f13000c003a000ce0a00063
:100ec00064435300d54f130003003200050378003c
:100ed00007007800090037004e1490008502e800f2
:100ee000c80478004817980059179800050378003f
:100ef00009003700ea00b90000804300860278004c
:100f0000b603fb000703b100e98f5300f9ff360079
:100f100050179800f5ff3700b6427800cbc6b300f3
:100f2000061798008bcf5200250032000f003c00be
:100f300036c6b30086cf5200a300320004003c0046
:100f4000e0cf5200ff0232006b4353000f00370026
:100f500046c6b30086cf52001700320065434300f7
:100f600086cf5200b6003a001300370036c7b300f0
:100f700086cf52002000320007003c00644353003b
:100f800086cf5200150032000643e80086cf52009b
:100f9000ab003a001400370056c7b30086cf5200aa
:100fa000ac0032006343430086cf5200a4003a00f5
:100fb000054f78000e003700054f7800a700370076
:100fc000f003660005012000010032000500280042
:100fd0008c82720005067800cfff3700054f78003d
:100fe0000c60a0009d003700054f78000c50a00059
:100ff0000c70a000990037004e109000054f78004b
:10100000c00278004017980075179800e08f5200d2
:1010100002003a00c2082100721798007e13900067
:101020008002eb00010037008502e80085034300e1
:101030008041eb0097cf1100fbff3a00051f98009d
:10104000de129000e08f5200050032000e1b90006f
:10105000868f52000200310085037800071f980038
:101060008e1a90000004eb00850f5200010036003c
:10107000050452006806660009c2b3001100320080
:101080002d0037003d0290000404b200040032003d
:101090001d027800094a7800840ee8000500370038
:1010a0008d00780000022000ac020700e10f400034
:1010b000030032006e1590000a05e8006a179800d8
:1010c0000804e900e00f5400eeff3a000084eb0052
:1010d00019003700bd0290000504b200090032007b
:1010e000880278009d03780035437800864b7800ad
:1010f00005047800870ee800e04f53000a003a002c
:1011000012003700880278008d0078003500fb005f
:10111000441f980005047800900207004e1a9000c2
:10112000e10f4000090032006e1090000000e8005e
:101130006017980005003700080278007e149000c0
:101140008e1c90001e1d9000ae1d9000890278003c
:101150008504e900e08f5200deff3a00781798001e
:10116000091f98001a1f98002b1f9800040478008c
:10117000e00f56006e02320009c2b3006e169000f6
:101180000e0037003d0290000404b200040032005b
:101190001d027800094a7800840ee8000500370037
:1011a0008d007800000220006c020700e10f400073
:1011b000010032000c06e8000804e900e00f5400ca
:1011c000f0ff3a0059023700ce109000700366001d
:1011d0004104780041179800cfc4de00090578006b
:1011e0008a0578000800be000a01be004800de0043
:1011f000c80add0000807200004f7800e00f530045
:1012000009003200e04f500007003200e14f40007b
:10121000050032002600200010479800284798005b
:10122000061f98000300370017002000071f9800d2
:10123000184798000e04e8007817980080ff3700e0
:101240001a002000054f78007e1798000a1f9800aa
:101250007bff3700054f78000c0cb3008c02780040
:10126000050cb2003b003a00e00f560005003d00bf
:10127000ce1290004501be004500be004517980003
:101280000f003700f0026600120032004e1490008a
:101290004803be0046079800570798004817980073
:1012a00098029000cfaade006507980075079800a5
:1012b0004e009000de0090006e019000fe01900054
:1012c00070179800011f9800121f9800231f9800a4
:1012d0000b003700ce109000c102780005047800a2
:1012e000cfc4de00090578008a0578004117980010
:1012f00078179800091f98001a1f98002b1f980054
:101300007e1090008e1890001e199000ae1990006b
:10131000e00f5000e08f5800e00f5900e08f5900b7
:1013200032003d006000b8006011b8007e149000eb
:101330008e1c90001e1d9000ae1d90003c00b3005e
:1013400008045000898458000a0559008b8559000b
:1013500022003700e00f560005003d00ce1290003d
:101360004501be004500be00451798000f0037003c
:10137000f0026600120032004e1490008004eb0070
:101380004803be000005eb00460f9800570f980079
:10139000690f98007a0f98004e089000de089000c0
:1013a0006e099000fe099000481798007017980089
:1013b000011f9800121f9800231f98000b00370090
:1013c000ce109000c1027800411798000504780003
:1013d000090020000a0020000b0020007817980068
:1013e000091f98001a1f98002b1f9800de14900008
:1013f000e08f54000d003a001a0020007e1090008b
:101400008e1890001e199000ae1990005a1798007f
:10141000e00f5000e08f5800e00f5900e08f5900b6
:10142000020032008000eb00511798000c01780098
:1014300005042000020cb20032179800850f5100fd
:101440003400320003003c00e00f5100080032007d
:101450004800370005082000be119000858f51001c
:1014600014003200050c2000858f510041003a0025
:10147000c609210015c0b3003600be003601be000b
:101480007e1490008e1c90001e1d9000ae1d9000da
:101490000040e10001c8e10002d0e10003d8e10012
:1014a000330039008542e800f4cf5200f2ff3a00e1
:1014b0002f00370015c0b3000001200001002000fc
:1014c0006011b8007e1490008e1c90001e1d9000cc
:1014d000ae1d90000040e10001c8e10002d0e10033
:1014e00003d8e10022003900490020000000d000ac
:1014f0008180d2000281d2008381d2008904e90078
:10150000faff3a008542e800f0cf5200edff3a00c2
:101510001700370015c0b300800020000100200034
:101520006011b8007e1490008e1c90001e1d90006b
:10153000ae1d90000040e10001c8e10002d0e100d2
:1015400003d8e1000a003900390020000000d00073
:101550008180d2000281d2008381d2008904e90017
:10156000faff3a008542e800f5cf5200edff3a005d
:10157000054f78009e02fb005e1590008a8f520096
:1015800002003d000a4f780004003700de1590008d
:10159000858f550001003d0055179800e00f52005f
:1015a00003003200e3026600010032000402e90099
:1015b0000500240085026600060032005e109000df
:1015c000800f520002003400000252000100370078
:1015d0000002eb008000eb009e02fb002117980048
:1015e000850f520002003400850252002517980032
:1015f0006402660045003200e20266006102660095
:10160000e08f520017003200bd0290000504b200c6
:10161000080032009d027800b6c2b300e00f52000d
:101620000100320006c3e800864a7800850ee80013
:1016300008003700b0022000e00f52000100320025
:101640000080e8008d00780044010700e10f4000b1
:10165000160032006e1190000201e8006217980037
:1016600012003700e00f5200100032003d029000df
:101670000404b200050032001d02780005c2b30068
:10168000054a7800840ee800050037008d007800d8
:101690000002200031010700e10f4000030032008a
:1016a000ee1190008301e800631798002e1290005d
:1016b000e00f52005b00320008c3b30084047800de
:1016c0003d0290000404b200040032001d027800c4
:1016d000084a7800840ee800050037008d00780085
:1016e000000320001d010700e10f4000030032004d
:1016f000ee1290008502e800651798008904e90061
:10170000efff3a0029179800460037002e1390008b
:10171000e00f5300160032006802660014003a0021
:1017200008c2b300860478003d0290000404b200b1
:10173000040032001d027800084a7800840ee80098
:10174000050037008d00780000022000030107002b
:10175000e10f400003003200ee1390008703e80021
:10176000671798008904e900efff3a0029179800ed
:10177000e202660061026600e08f5200170032004c
:10178000bd0290000504b200080032009d027800fe
:10179000b6c2b300e00f52000100320006c3e800f9
:1017a000864a7800850ee80008003700b002200065
:1017b000e00f5200010032000080e8008d00780048
:1017c000e6000700e10f4000160032006e149000a2
:1017d0000804e8006817980012003700e00f520074
:1017e000100032003d0290000404b20005003200f7
:1017f0001d02780005c2b300054a7800840ee80097
:10180000050037008d00780000022000d30007009b
:10181000e10f400003003200ee1490008904e8005c
:10182000691798005e159000440921008a02e900ba
:10183000f0056600c32add000c0078000482420037
:101840000002b200141798003b0798002007980088
:101850009c003700de1090003e1190008100e900ee
:101860000304200051179800830f51006f003200cd
:1018700003003c00e00f5100080032007c003700fc
:1018800004082000be129000848f520051003200e4
:10189000040c2000848f520075003a00e00f5600bf
:1018a0001b003d001e1390007e1090008e189000cb
:1018b0001e199000ae1990003604be002605be0029
:1018c0000802be000a03be00e30107000802be00d2
:1018d0000a03be00004f78000000fb00cf80de004e
:1018e00001017800820178004c0207007e1490000c
:1018f0008e1c90001e1d9000ae1d90000004540030
:1019000081845c0002055d0083855d002000370056
:10191000be049000e08f5400220032001e109000a0
:101920007e1290008e1a90003004be002005be008a
:10193000441f98000400be000801be00351f980037
:10194000100107000801be00004f78000000fb00f6
:10195000cf80de001b0107004e1a9000be1a9000d7
:101960000001520081815a000002eb00020f980032
:10197000130f9800340f98008001eb00230f98009c
:101980000e0c90009e0c90002e0d9000be0d90004d
:1019900078179800091f98001a1f98002b1f9800ad
:1019a000090037009e1490007e15900019027800ff
:1019b000110009000485d800a400200011000900ce
:1019c0000480d800014f78000bc3b3001ecf450040
:1019d00027003700b40721002e009000e00f5000d0
:1019e00001003200a4062100de109000c20add00d2
:1019f0007e1090008e1890001e199000ae19900075
:101a00008502e900050033008301d1000281d30083
:101a10008180d3000080d300f9ff3700ef0260001f
:101a200005024200144f7800110037005e1190004b
:101a30007e1490008e1c90001e1d9000ae1d900024
:101a4000e312b90001c3b300040078000000e9000c
:101a5000050033008b05d1000a85d3008984d300ab
:101a60000884d300f9ff370067426400014f420049
:101a70003d0290000404b200070032009d0278008d
:101a80001e427800844a7800850ee800e04f52003c
:101a900006003a00080037001e00fb008d007800a9
:101aa0002e000700e10f4000030032006e1190008d
:101ab0000201e800621798009e119000e881510031
:101ac000131798005e129000e00f520061ff3a0079
:101ad0006806660016003200ae129000e08f5200d9
:101ae000130034006e16900008c2b300850478001d
:101af0003d0290000404b200040032001d02780090
:101b0000084a7800840ee800050037008d00780050
:101b10000002200011000700e10f40000100320028
:101b20000c06e8008904e900f1ff3a006c17980000
:101b30000e13900016407800004f7800e04f5000e0
:101b400089fc3a004f06be006e1090004f05be00a3
:101b50004f04be000080fa00000006000000fa00fa
:101b6000889fbe00010478008084eb00380290005a
:101b7000e20262003b003200040378009802900009
:101b80000620b20002003a00e08f520035003a0011
:101b90000490a0008004780034049800f90fb2008b
:101ba000e08f520002003a00a8029000050c780075
:101bb000ea8f540005003a000408b20003003a001e
:101bc00088007800d0002000e4ff07001802900091
:101bd000d8029000850f52000b0032000402e8008a
:101be00015c0b3001404980018027800094a780060
:101bf000040ce800a4152100054a7800ea8f54007f
:101c000018003a0005003700094078008800780085
:101c10001800070080047800120037003802900096
:101c20000410b2000f00320018019000a8009000cc
:101c3000480090008cfa070018029000840f5000b2
:101c400004003200380290000403b300340498000a
:101c50008084eb000002eb0014049800280290003e
:101c6000040c7800090078004f04be000080fa00e0
:101c7000000006000200fa00889fbe000104780000
:101c8000004f780038029000840278000504b2000a
:101c9000020032000000fb0033003700e202620065
:101ca00005003a000403b3001504980034049800ba
:101cb0000080eb002c003700d8049000e08f540027
:101cc00006003a00120020008e00780048009000c4
:101cd00065fa07001904980022003700a802900056
:101ce000e08f520008003a00d51521000430a00012
:101cf00025049800050c7800340498002500200085
:101d0000550498001504980018019000a800900050
:101d10004800900054fa0700280290008082eb00ef
:101d2000150498001e4a7800040ce800a4c0b30013
:101d30009e4f12000b003a00380290000410b200cf
:101d40000800320018019000a800900048009000a0
:101d500045fa07000002eb001404980028029000e6
:101d6000040c78001e00fb004f04be000080fa0047
:101d7000000006000000fa0000c0da000080fa004f
:101d8000000006006022b800060220000000d0001b
:101d90008180d2000482d2008582d2000000a0009f
:101da0000202520083825a00030031000202420004
:101db00083824a000000a1000603e900f3ff3a0015
:101dc00000000600020ab900001bb9000200b800ba
:101dd0008100420081004300000006000000fa007c
:101de000889fbe008a9fbe003004be002005be0052
:101df0000404440085844c0006054d0087854d0091
:101e00000898be000a90be000440e10005c8e10049
:101e100006d0e10007d8e100020031006800400070
:101e20001008e8004f05be004f04be000080fa0015
:101e3000000006001000fa00889fbe008a9fbe00c6
:101e40000605be000404be003002be002003be0032
:101e5000049fbe000697be00110020000802520039
:101e600089825a000a035b008b835b004407980059
:101e70005507980066079800770798000498be00f9
:101e80000698be003e02be002e03be000820e10000
:101e900009a8e1000ab0e1000bb8e1000100390037
:101ea0008000eb004f05be00108810004f04be00fc
:101eb0000080fa00000006001400fa00889fbe00af
:101ec0005b0007008a9fbe008c9fbe000006eb00ef
:101ed0004c0798003c0798002c0798001c079800b6
:101ee0000c0f78000605be000404be000d0420009f
:101ef0004e039000be029000860343002e02900025
:101f0000e00f530003003d002a000700b3ff070065
:101f10000200370027000700c6ff0700ce0290002e
:101f2000150f9800e08f52000900350045000700aa
:101f300014002000050020006033b800000072008b
:101f400081807200020173008381730038000700f2
:101f50000c06e8008d0f5600e5ff3a001e0a9000bf
:101f6000e00f520004003d000802be000a03be005c
:101f70000e00780099ff07004eba9700e00f52005c
:101f800006003a003e04be002e05be005807980029
:101f9000690798007a0798000b0f98004f06be005b
:101fa000280007004f05be004f04be000080fa0065
:101fb000000006004f2bde0022000700868373001e
:101fc000858242004f23de00470798008682720018
:101fd00004024200350798009e0290004f2bde005d
:101fe0008582420006027200240798001e027800d3
:101ff0004f23de000402420086827200150798001b
:102000004f18de00000f72000e0007000802be002d
:102010000a03be0000004000818048000201490020
:1020200083814900020007000e00780000000600ce
:10203000500798006107980072079800030f9800f6
:10204000000006005e009000ee0090007e0190000f
:102050008e099000000006000000fa00881f78003a
:1020600018002000881f780093ff07008f87e90081
:102070004f0478000080fa00000006000000fa001b
:10208000801feb008cff07008f87e9000080fa00bb
:10209000000006000000fa00889fbe008a9fbe0074
:1020a000e00f5000e08f5800e00f5900e08f59001a
:1020b0000c003d006044b8006055b80000005400ba
:1020c00081805c0002015d0083815d0018002000ba
:1020d0001600070008003d00190007000004eb008f
:1020e000050037000004eb001000070002003d006f
:1020f0001300070018002000d7ff0700e00f54006e
:10210000060032006022b8006033b80000005200c0
:1021100081805a0002015b0083815b004f05be0095
:102120004f04be000080fa0000000600e00f5200dd
:10213000e08f5a00e00f5b00e08f5b0000000600bc
:102140006044b8006055b8000402540085825c0009
:1021500006035d0087835d00000006000000fa00b2
:10216000889fbe008a9fbe008c1f7800e00f500041
:10217000e08f5800e00f5900e08f59000d003d003e
:102180006044b8006055b8001c00200000005400f6
:1021900081805c0002015d0083815d000820e10018
:1021a00009a8e1000ab0e1000bb8e1000d003d0014
:1021b000080037000006eb00e00f5200e08f5a00e5
:1021c000e00f5b00e08f5b0006003d006044b8005c
:1021d0006055b8000402540085825c0006035d006f
:1021e00087835d00a5ff0700e00f56000600320060
:1021f0006022b8006033b8000000520081805a00ad
:1022000002015b0083815b004f0678004f05be0032
:102210004f04be000080fa00000006000000fa0033
:10222000889fbe008a9fbe008c1f78000006eb00ce
:10223000e00f5000e08f5800e00f5900e08f590088
:1022400007003d006044b8006055b8001c00200045
:102250000000540081805c0002015d0083815d000c
:10226000e00f5200e08f5a00e00f5b00e08f5b0050
:1022700007003d006044b8006055b8000c00a200a3
:102280000402540085825c0006035d0087835d00c4
:102290000d000700e00f5600060032006022b80073
:1022a0006033b8000000520081805a0002015b00d8
:1022b00083815b004f0678004f05be004f04be00cf
:1022c0000080fa0000000600889fbe008a9fbe00c2
:1022d0008c9fbe000404b8000506b80089044600bf
:1022e00060854e000606b8000a054600e0854e00ef
:1022f0000706b8008b054600040eb80089044600a6
:102300000a854e00e0854d00050eb8000a0546001e
:102310008b854e00060eb8008b0546000416b800eb
:102320000a0546008b854e000516b8008b05460051
:10233000041eb8008b0546000800be000a01be005e
:102340004f06be004f05be004f04be000000060051
:020000040000fa
:102350006465000076690000636500002069000084
:102360006e690000746100006c6900007a6500000d
:102370006400000064650000766900006365000089
:102380002068000061730000207200006574000086
:10239000757200006e65000064200000616e000030
:1023a000207500006e6b00006e6f0000776e0000fd
:1023b0002049000044000000647300005049000000
:1023c0004320000069730000207200006561000076
:1023d0006479000000250000640000002000000077
:020000040000fa
:1023e0000600fa00004f78001107980022079800b5
:1023f000d2f8070009f9070000000000341080003f
:1024000061026200e00f5200fcff3a001e029000e1
:10241000040242000442780004407800e1f807001a
:10242000000000004410800061026200e00f5200d2
:10243000fcff3a0000000000451080000400280066
:1024400004826200e00f5200fbff3a002e0290006f
:102450000442780004407800d2f807000000000031
:10246000451080000400280004826200e00f520042
:10247000fbff3a001e42780004407800c9f80700cc
:102480000000000045108000040028000482620063
:10249000e00f5200fbff3a00e4f807000080fa006a
:1024a000000006000600fa001007980021079800b7
:1024b0000042eb00044f7800a0f80700d7f80700af
:1024c000000000003410800061026200e00f520042
:1024d000fcff3a001e029000040242000442780011
:1024e00004407800aff807000000000044108000ae
:1024f00061026200e00f5200fcff3a0000000000a1
:10250000451080000400280004826200e00f5200a1
:10251000fbff3a002e02900004427800044078004d
:10252000a0f807000000000045108000040028000b
:1025300004826200e00f5200fbff3a00b7f8070088
:10254000000000003410800061026200e00f5200c1
:10255000fcff3a001e029000040242000442780090
:102560000404a000044078008ef80700000000007a
:10257000451080000400280004826200e00f520031
:10258000fbff3a007ff8070000427800044f780014
:1025900098f80700a5f8070000000000341080003c
:1025a00064026200e00f5200fcff3a001e42780015
:1025b000044078000080fa00000006000a00fa00db
:1025c00010079800210798003207980043079800e9
:1025d0005af8070091f8070000000000341080004e
:1025e00061026200e00f5200fcff3a003e029000e0
:1025f00004024200044278000440780069f80700b1
:10260000000000004410800061026200e00f5200f0
:10261000fcff3a0000000000451080000400280084
:1026200004826200e00f5200fbff3a004e0290006d
:1026300004427800044078005af8070000000000c7
:10264000451080000400280004826200e00f520060
:10265000fbff3a0071f80700000000003410800012
:1026600061026200e00f5200fcff3a003e0290005f
:1026700004024200044278000404a00004407800f0
:1026800048f8070000000000451080000400280002
:1026900004826200e00f5200fbff3a000002eb00f0
:1026a000040f78000f00370036f80700004278006a
:1026b0009e029000844a78001e0290000402e80006
:1026c000140798000228a90017f80700000000006e
:1026d0001440800062026200e00f5200fcff3200f2
:1026e0001e0fe8002e0290000402e9009e0f520027
:1026f000edff3c0023f80700004278009e029000a6
:10270000844a78001e0290000402e8001407980032
:1027100038f8070045f8070000000000341080007a
:1027200064026200e00f5200fcff3a000080fa00f1
:10273000000006000000fa00b2062000810620001a
:1027400010c0b30026ff0700b20120008106200060
:1027500080c0b30022ff0700c201200081062000d4
:102760000040eb001eff07005107200080062000fc
:102770004cff07000042780085c6b300854f520029
:1027800002003a0014002000010037000002eb00b4
:10279000040078000080fa00000006000200fa0041
:1027a000000f7800c003210007000700a0042100eb
:1027b0000e0007009e007800c00321001f000700e4
:1027c0000080fa00000006000200fa00000f780006
:1027d000b303200082062000e10020001e007800e4
:1027e00076ff07000080fa00000006000200fa00f1
:1027f000000f7800720320008106200020c0b30083
:10280000f7fe0700a2002000c100200010c0b300a6
:10281000f3fe070000e62a00a1002000b103070034
:1028200033002000c2002000610020001e0078005c
:1028300062ff07000080fa00000006001600fa00a0
:10284000100f9800210f98001e0a90001442780083
:102850000482fb00c822dd001e0a90000402e8008a
:10286000144278000482fb0005027200040f780015
:102870001e0a90000482e800144278000482fb00e3
:10288000c822dd001e0a9000630242001442780054
:102890000482fb0005027200140798001e0a9000d3
:1028a00064024200144278000482fb00c822dd006a
:1028b0001e0a900065024200144278000482fb0068
:1028c00005027200240798001e0a90006802420068
:1028d000144278000482fb00c822dd001e0a90002a
:1028e00069024200144278000482fb000502720073
:1028f000340798001e0a90006a02420014427800d1
:102900000482fb00c822dd001e0a90006b02420018
:10291000144278000482fb0005027200440798000c
:102920001e0a90006c024200144278000482fb00f0
:10293000c822dd001e0a90006d0242001442780099
:102940000482fb0005027200540798001e0a9000e2
:102950006f024200144278000482fb00c822dd00ae
:102960001e0a90006e024200144278000482fb00ae
:1029700005027200640798001e0a9000710242006e
:10298000144278000482fb00c822dd001e0a900079
:1029900070024200144278000482fb0005027200bb
:1029a000740798001e0a90007302420014427800d7
:1029b0000482fb00c822dd001e0a90007202420061
:1029c000144278000482fb0005027200040f980094
:1029d0009e027800b482800004824200040f7800d6
:1029e0009e029000c4828000048242001407980076
:1029f000ae029000d4828000048242002407980036
:102a0000be02900084828000048242003407980055
:102a1000ce02900094828000048242004407980015
:102a2000de029000a48280000482420054079800d5
:102a30001e027800cfa2de000400be00e2f707000d
:102a40000002be0002002000036824000400be0053
:102a50007af707000002be002e0b9000048bbe0028
:102a60002e0a900064024200240f98001e0290007b
:102a7000cfa2de000400be00d3f707000002be00b4
:102a800002002000036824000400be006bf707006a
:102a90000002be002e0b9000048bbe002e0a900098
:102aa00064024200240f98002e029000cfa2de00a4
:102ab0000400be00c4f707000002be0002002000b0
:102ac000036824000400be005cf707000002be009b
:102ad0002e0b9000048bbe002e0a90006402420070
:102ae000240f98003e029000cfa2de000400be003a
:102af000b5f707000002be000200200033282400c2
:102b00000400be004df707000002be002e0b90002f
:102b1000048bbe002e0a900064024200240f98002d
:102b20004e029000cfa2de000400be00a6f7070010
:102b30000002be0002002000332824000400be0072
:102b40003ef707000002be002e0b9000048bbe0073
:102b50002e0a900064024200240f98005e0290004a
:102b6000cfa2de000400be0097f707000002be00ff
:102b700002002000332824000400be002ff70700c5
:102b80000002be002e0b9000048bbe002e0a9000a7
:102b900064024200240f98006e029000cfa2de0073
:102ba0000400be0088f707000002be00a2992900b9
:102bb00093e923000400be00d9f707000002be001d
:102bc0002e0b9000048bbe002e0a9000640242007f
:102bd000240f98007e029000cfa2de000400be0009
:102be00079f707000002be00a299290093e92300ab
:102bf0000400be00caf707000002be002e0b9000c2
:102c0000048bbe002e0a900064024200240f98003c
:102c10000e0a9000cfa2de000400be006af7070093
:102c20000002be00a299290093e923000400be001f
:102c3000bbf707000002be002e0b9000048bbe0005
:102c40002e0a900064024200240f98000080fa00cf
:102c5000000006001600fa0070004700020009009c
:102c60000018eb000002eb00040f7800250037008d
:102c700000fc2c00a10620009a0207000e82e8004a
:102c800004007800d0fe07000e0a9000840278004d
:102c90002e4a90000482fb004823dd003e4a90004b
:102ca0000482fb000602720004824200040f9800b6
:102cb0001e0a9000840278004e4a90000482fb00b5
:102cc0004823dd005e4a90000482fb000602720089
:102cd00004824200140f98002e0a900084027800ab
:102ce0006e4a90000482fb004823dd007e4a90007b
:102cf0000482fb000602720004824200240f980046
:102d00001e0fe8001e027800e90f5200d8ff3400c1
:102d10008e0a9000a4002000110009008402d8004f
:102d200000027800040f98009e0a9000a400200082
:102d3000110009008402d80000027800140f9800e6
:102d4000ae0a9000a4002000110009008402d800ff
:102d500000027800240f98000e0a90000402ea0096
:102d6000848288001e0a90000402ea00948288008f
:102d70002e0a90000402ea00a48288000080fa0073
:102d8000000006000000fa00160007001f00070000
:102d90005300070014cea80000d82100c142200033
:102da0005002070014cea9007800070061fe07005a
:102db00000027800e00f52000400320011012000f0
:102dc000801a29007b000700030037001102200051
:102dd000a01b290077000700170107000080fa00f8
:102de000000006000000fa000002eb00747088008a
:102df0000002eb00f470880010cea900114ea9006b
:102e000011eea8000080fa00000006000000fa00a1
:102e1000153a8000f4fb2f00048362006404200054
:102e20007505200027742000844b7800854b7800be
:102e3000864b78002536800004f82f0084826200db
:102e4000f402200005027200243688004534800018
:102e500004fc2f00048262000400a00044348800b7
:102e6000153a800004042000040378000503730071
:102e7000640420007505200027742000844b78002e
:102e8000854b7800864b78000080fa000000060031
:102e90000000fa0005e1a9000401280024088800c8
:102ea00005428000040021000502720004428800ef
:102eb000e4222200140888000068a900044280006f
:102ec00004c0a00004d0a10004e0a00004428800d7
:102ed0002068a80005e1a8000080fa0000000600b4
:102ee0000000fa0021e2a90021a2a9002182a90084
:102ef0002162a900041180000480a1000490a100b7
:102f00000411880020e2a90020c2a90020a2a90083
:102f10002062a900041180000410a1000420a10077
:102f2000041188002002a9005402200044118800e6
:102f300023c2a90023a2a9002362a9002342a90059
:102f4000141180000460a1000470a1001411880015
:102f500022a2a9002442800004c0a10004d0a00045
:102f600004e0a000244288000168a9002168a800ac
:102f700021e2a8002342a80000fc2c00a1062000aa
:102f8000d80107000080fa00000006000400fa00e3
:102f9000642d2000040f780004222c0014079800f0
:102fa0009e0078001e00900017f607000080fa00cf
:102fb000000006000600fa0010079800210798009c
:102fc0000002eb00040f7800120037001e02900090
:102fd00014427800e04f5200130032001e029000ad
:102fe000144278000402fb00241188001e029000a5
:102ff0000402e8001407980000000000151180008a
:103000000420200004826200e00f5200fbff3a001f
:103010001e0fe8002e0290009e027800848f52005e
:10302000eaff35000100370000000000d400200056
:1030300024118800000000001511800004202000e9
:1030400004826200e00f5200fbff3a00a40020005f
:10305000241188000080fa00000006000600fa0033
:1030600010079800210798000002eb00040f780079
:103070000e0037001e029000144278000402fb008c
:10308000241188001e0290000402e8001407980032
:10309000000000001511800004202000048262005e
:1030a000e00f5200fbff3a001e0fe8002e029000d6
:1030b0009e027800848f5200eeff35000080fa00f7
:1030c000000006000200fa00000f78000b00370035
:1030d0001e027800144278000402fb0024118800cc
:1030e0001e0fe800000000001511800004202000e1
:1030f00004826200e00f5200fbff3a001e027800db
:1031000014427800e04f5200f1ff3a000080fa00cc
:10311000000006000a00fa00400798000002eb00d9
:10312000040f7800300037004e029000ce0290006d
:10313000e482420045079800040078002f00070051
:103140000002be0014079800250798001e02900098
:10315000ae029000482ade000442780064479800de
:10316000660247001100200004007800bbff070042
:103170001e029000ae02900040aade00cfa2de0048
:10318000044278006447980066024700110020005e
:1031900004007800b1ff07001e029000ae0290000c
:1031a000482bdd004822de0004027300c8aade00be
:1031b000044278006447980066024700110020002e
:1031c00004007800a5ff07001e029000044278006a
:1031d0006447980066024700110020000400780050
:1031e0009eff07001e0fe8001e027800e80f520045
:1031f000cdff34000080fa00000006000200fa0053
:10320000000f78001e0278001402be0002002000a9
:10321000a34724000400be0041f607000002be00e0
:103220000400be00c7f507000002be000400be0097
:103230000080fa00000006001200fa000e0078007c
:1032400061fd07006c0247000400780067fd07007d
:103250000e02780011002000040078007fff0700b4
:103260000e0278000402e80011002000040078003b
:1032700050ff07000e0278000482e80011002000d1
:103280000400780075ff07000e0278006302420018
:10329000110020000400780046ff07000e027800ad
:1032a0006402420011002000040078006bff070058
:1032b0000e02780065024200110020000400780030
:1032c0003cff07000e027800660242001100200059
:1032d0000400780061ff07000e02780067024200d8
:1032e000110020000400780032ff07000e02780071
:1032f00068024200110020000400780057ff070018
:103300000e027800690242001100200004007800db
:1033100028ff07000e0278006a0242001100200018
:10332000040078004dff07000e0278006b02420097
:1033300011002000040078001eff07000e02780034
:103340006c024200110020000400780043ff0700d7
:103350000e0278006d024200110020000400780087
:1033600014ff07000e0278006e02420011002000d8
:103370000400780039ff07000e0278006f02420057
:1033800011002000040078000aff07000e027800f8
:103390007002420011002000040078002fff070097
:1033a0000e02780071024200110020000400780033
:0c33b00000ff07000080fa00000006008b
:020000040000fa
:1033bc0062100000040000008000000000100000fb
:1033cc003c000000800000006610000004000000bb
:1033dc00820000000a0dde00000000003c1000001e
:1033ec001a00000080000000561000000c000000c5
:1033fc0082000000b9fea3000000000000000200e3
:10340c00000000006a100000ca00000082000000ea
:10341c003031320033343500363738003941420010
:10342c004344450046003000313233003435360019
:10343c0037383900616263006465660000286e00ed
:10344c00756c6c00290000000100000000000000f9
:10345c0000000a00000000000000000000640000f2
:10346c000000000000000000e80300000000000065
:10347c0000001000270000000000000000a08600e3
:10348c00010000000000000040420f00000000009e
:10349c000000800096980000000000000000e10091
:1034ac00f50500000000000000ca9a003b00000077
:1034bc0000000000e40b5400020000000000e800d3
:1034cc0076481700000000000010a500d4e80000aa
:1034dc0000000000a0724e0018090000000040001f
:1034ec007a10f3005a0000000080c600a47e8d0004
:1034fc000300000000c16f00f286230000000000f2
:10350c008a5d78004563010000006400a7b3b60033
:10351c00e00d000000e889000423c7008a000000c9
:10352c003411000026000000820000005b11000036
:10353c00005b110009000000000200005d1100009a
:10354c00005d11000e0201000000000000000000f0
:10355c000000000006020200000000003411000010
:10356c005a110000060000008000000060110000ed
:10357c0002000000820000000100000000000000ba
:020000040000fa
:10358c002400fa0062000700fbfd070010cea90022
:10359c0014cea900e1002000c01d290082fe070006
:1035ac000e0078007afc07004e0a9000de0a9000ac
:1035bc0002002000832c24000400be0055f50700f7
:1035cc000002be000400be00dbf407000002be00d7
:1035dc0004027800841f7800b41e2900841f780030
:1035ec0000002100bef50700e48757006e0a90002a
:1035fc00fe0a900002002000832c24000400be0070
:10360c0044f507000002be000400be00caf4070027
:10361c000002be0004027800841f7800b41e29004a
:10362c00841f780040012100adf50700e4875700a6
:10363c000e1290009e12900002002000832c240099
:10364c000400be0033f507000002be000400be00fb
:10365c00b9f407000002be0004027800841f780051
:10366c00b41e2900841f7800800221009cf50700fd
:10367c00e4875700110020008006210074fe07002b
:10368c00000021008cfe0700e01e29008afe0700c6
:10369c004001210088fe0700e01e290086fe07007d
:1036ac008002210084fe0700e01e290082fe070034
:1036bc00110020007006210065fe0700110020009b
:1036cc006006210062fe070000fc2c00a106200011
:0836dc0001000700b2ff3700f6
:020000040000fa
:1036e400f03fb1000180b10006003500ee0309008f
:1036f40000000000403fb1000180b100fbff3d002d
:103704001000b000203fb000020035000080090026
:083714000000000000000600a7
:020000040000fa
:10371c000000fa0044042000343a88000002eb0058
:0c372c00243a88000080fa00000006002b
:020000040000fa
:020000040002f8
:04afe000cfff00009f
:020000040000fa
:020000040002f8
:04afe400efff00007b
:020000040000fa
:020000040002f8
:04afe8007fff0000e7
:020000040000fa
:020000040002f8
:04afec00b9ff0000a9
:020000040000fa
:020000040002f8
:04aff000fbff000063
:020000040000fa
:020000040002f8
:04aff400ffff00005b
:00000001FF
