:020000040000fa
:080000000002040000000000f2
:020000040000fa
:1000080000030000080300002c0300001003000098
:10001800180300002003000030030000280300003c
:10002800280300002803000028030000280300001c
:10003800280300002803000028030000280300000c
:10004800280300002803000028030000d202000053
:1000580028030000280300002803000028030000ec
:1000680028030000280300002803000028030000dc
:1000780028030000280300002803000028030000cc
:1000880028030000280300002803000028030000bc
:020000040000fa
:100400006f0721000eff24000e018800000000008d
:10041000000020000000e000020032000001200087
:10042000200288000c0007002006210001002000a7
:100430000f000700000020000000e0000200320072
:1004400000000200000000001e100200000000007a
:100450000040da000000fe00800620000000e000fe
:1004600002003200002020009001880000000600f9
:10047000a1028800800078000000eb001a0037001d
:10048000e280400054a0b4009101ba00e280400034
:1004900054a0b4009102ba00e280400054a0b4001d
:1004a0000002eb00472bde00f507b200a601880032
:1004b000602ce10008003a000049eb000201e8006e
:1004c000020039003420ec0002f0a0008301e900b2
:1004d000f9ff3e00040037006128e100010032000e
:1004e0000082eb00040007001101ba000200e000e6
:1004f000e3ff3a000000060004d0a300e20f490029
:100500001c003900810278003549ba000201e80078
:10051000020039003420ec0002f0a0008301e90061
:100520000f0032002549ba000201e800020039003c
:100530003420ec0002f0a0008301e9000800320042
:100540000400e0000600320015c9ba000201e8000c
:10055000020039003420ec0002f0a0008301e90021
:100560008180e80054a0b4000300e000e2ff3a00fc
:10057000000006009102ba00055978008301e900e5
:10058000f7ff3200c82ade00055978008301e90030
:10059000f3ff32000400e000f1ff320011d9ba008d
:1005a000eeff3700801f7800849fbe000200fa0033
:1005b00034118000044f780014c3b3009e427800c9
:1005c00084cf520003003a00140020007483880096
:1005d0000600370034c3b3009e42780084cf520037
:1005e00002003a0014002000848388000168a900fa
:1005f0000080fa004f02be004f0078000040060065
:10060000801f78000000fa00c028a900ffff370013
:10061000801f78000000fa00c068a900ffff3700c3
:10062000801f78000000fa00c048a900ffff3700d3
:10063000801f78000000fa00c088a900ffff370083
:10064000801f78000000fa00c0a8a900ffff370053
:100650000000fa00ffff37000000fa00ffff37003c
:100660000000fa00ffff37000000fa0006a2a90010
:100670000682a8000080fa00000006000000fa00d0
:10068000040024000602ab00feff3a000642ab0065
:10069000fcff3a000662ab00faff3a000622ab000c
:1006a000f8ff3a000682ab00f6ff3a0046108000e1
:1006b00086026200e08f5200f2ff3a000080fa00ea
:1006c000000006000000fa000662a8000662ab0007
:1006d000feff3a0008c2a900001080000080fa0066
:1006e000000006000000fa000080fb0010108800e7
:1006f000441080000408b20000c0eb000b003a0078
:10070000040024004610800086026200e08f520040
:10071000fcff3a00d9ff0700000028000802b600dd
:10072000e00f500001003200e0cfb3000080fa007b
:10073000000006000000fa0006a2a8000682a80039
:100740000080fa00000006000000fa002110880076
:10075000301088000080fa00000006000000fa0057
:100760000602a8000080fa00000006000000fa005f
:100770000642a8000080fa000000060003f0a20074
:10078000889fbe008a9fbe008c1f7800fa00070079
:10079000010133006450e1004f0032006420e100a9
:1007a0005200320003826c0007003b000905d000b4
:1007b0000306d000820f54000c065d0002003900d1
:1007c0000200320089017800030678008582550016
:1007d00004003d000003fd008103fd008502ea00e6
:1007e0008b854200840f720002003b006000100005
:1007f000e08018006011b8000005eb007a28e100e5
:100800000a00390006007800c75ddd00f707b20076
:10081000878075002d003700828171000a01780001
:10082000610560008180d1000080d3008502e9006d
:10083000f9ff3b00060440008784480002003b00ab
:1008400060041400e0841c000988a3000700320043
:100850008a81710082817100610164008904d10084
:100860000884d3008b05e800170037000978a3003f
:1008700013003a000b00e000130034008b05e90080
:100880000804440089844c000a4474000978a300d9
:100890000d003a000b00e000070034008b05e90072
:1008a0000804440089844c0001003a000b00200039
:1008b0000978a300f7ff32000001eb0002003700c7
:1008c000828171000a017800700007000cf0a70017
:1008d00001f0a000b90037006420e10002003a00f6
:1008e000838f6c00b90033000801be000200be0017
:1008f000b2003700889fbe008a9fbe008c1f780020
:100900009d000700a400330003866c006450e100e2
:100910002e0032006420e100330032006150e1001b
:100920002f0032006120e100310032008585550042
:10093000eb07b00009002000080420000500370084
:100940000804440089844c000a0031000603430077
:1009500087834b000001530081815b00f8ff330067
:100960000203be000800a0000804440089844c0073
:10097000f6ff3900c639dd00830173000100320043
:10098000130020008904d1000884d3000998a30033
:10099000050032000800a7000300a0008904d10070
:1009a0000884d3008b05e8008904d1000884d300b3
:1009b0000001eb000281d2003400070001f0a10029
:1009c0000cf0a70001f0a0007c0037006420e100db
:1009d0007e0032000801be000200be00f7ff3700b3
:1009e0006120e100790032006000b800f3ff3700b9
:1009f0000000200001f82700f0ff37000001be00d2
:100a0000480007000470a70003f0a1006509b100c9
:100a1000160032000d0035006828e10006003500a0
:100a2000f0ff2f00f1ff27000300e00013003b0060
:100a300001002800000005000000400081804800ff
:100a40008502e900fcff3a0008003700f88f4200f9
:100a500002003c008000eb00000005008100d10096
:100a60000080d3008502e800fcff3a000300e000ac
:100a700002003b0060001000e0801800000006004b
:100a80004f89de0082017800870037008100200056
:100a9000618055000b003d000b00200061fe2f001f
:100aa0000100e1001d0034008281710061016400d9
:100ab0008904d1000884d3000000e800faff3a005e
:100ac00071002000610064000300700002006000fb
:100ad0000900320061044400e0844c000988a5004c
:100ae000050032008b05e8006808e10002003a00ca
:100af0008904d1000884d300f20f20000258e100dd
:100b000005003d00c75ddd00f907b2008980750072
:100b100008007800000006000bf827008b00780022
:100b200000000500c70ade00f107b200f50fb200b1
:100b300008003200e1cf4200020032000170a00044
:100b400024000500810f7000010032000408050038
:100b500044000500810f700002003a0014000500f7
:100b60008502e9000000400081c04800fcff3b0016
:100b70000170a000240005000004be00e9ff07008a
:100b80000003be000405be000200be00e5ff070032
:100b9000844f7500000006000200be006450e100b2
:100ba000050036006420e100020036000968a30059
:100bb00001003a000800be000160a0004f06780066
:100bc0004f05be004f04be0000000600f0ff2f00de
:100bd000f1ff2700f9ff3700889fbe008a9fbe0003
:100be0008c1f7800e4ff0700ebff330003866c00e6
:100bf0006450e100240032006420e100270032004c
:100c00006150e100220032006120e1002100320049
:100c10008b854200eb07b1000134b800003ab80000
:100c20000804420089844a00013ab8000030b80044
:100c30008880400009014a000400330000004000a1
:100c400081804800020149008b05e900c909dd00e7
:100c5000830170000100320013002000c814de0080
:100c60004814dd004709de001200b200c808de00ab
:100c70000884700085ff070001f0a1000cf0a700b8
:100c800001f0a000cdff37006120e100cfff32006e
:100c90000801be000200be00f7ff37006150e1000e
:100ca000fcff3a00c9ff3700881f78000304780072
:100cb0000300e00007003d0060001000e080180025
:100cc00060011900e081190002003b0001f02d00d5
:100cd000030037000400070008f0a70001f0a0009f
:100ce0004f04780000000600889fbe008a9fbe0067
:100cf000008270000402710004827100260032003c
:100d00000004be000200be006011b8006b092000a4
:100d1000950220000182cf000a0039000541b10090
:100d20000082cf00070039000541b1000982cf00e1
:100d3000040039000541b1000882cf0001003900ec
:100d40000541b10005425200120032000a003b008a
:100d500082817100610164008100d1000080d300b4
:100d60008984d3000884d3008b05e8000442e8009e
:100d7000f7ff3a00070037000804440089844c005c
:100d800000004800818048008b05e9000442e9002a
:100d9000f9ff3a003dff07004f05be004f04be00bb
:040da0000000060049
:020000040000fa
:100da4006465000076690000636500002069000046
:100db4006e690000746100006c6900007a650000cf
:100dc400640000006465000076690000636500004b
:100dd4002068000061730000207200006574000048
:100de400757200006e65000064200000616e0000f2
:100df400207500006e6b00006e6f0000776e0000bf
:100e04002049000044000000aaf10000823f0000d5
:100e14004260000065bd0000964300008b3c00006a
:100e24007f6a0000bc3d0000f4fd0000843f000028
:100e34006f120000033b00006f120000833b0000b0
:100e440058390000343c000066660000863f00000c
:100e540064730000504900004320000069730000df
:100e64002072000065610000647900000000000049
:020000040000fa
:100e74000600fa00004f7800110798002207980036
:100e8400fdfd070034fe0700000000003410800060
:100e940061026200e00f5200fcff3a001e02900063
:100ea4000402420004427800044078000cfe07006b
:100eb400000000004410800061026200e00f520054
:100ec400fcff3a00000000004510800004002800e8
:100ed40004826200e00f5200fbff3a002e029000f1
:100ee4000442780004407800fdfd07000000000083
:100ef400451080000400280004826200e00f5200c4
:100f0400fbff3a001e42780004407800f4fd07001d
:100f140000000000451080000400280004826200e4
:100f2400e00f5200fbff3a000ffe07000080fa00ba
:100f3400000006000600fa00100798002107980038
:100f44000042eb00044f7800cbfd070002fe0700cf
:100f5400000000003410800061026200e00f5200c3
:100f6400fcff3a001e029000040242000442780092
:100f740004407800dafd07000000000044108000ff
:100f840061026200e00f5200fcff3a000000000022
:100f9400451080000400280004826200e00f520023
:100fa400fbff3a002e0290000442780004407800cf
:100fb400cbfd07000000000045108000040028005d
:100fc40004826200e00f5200fbff3a00e2fd0700da
:100fd400000000003410800061026200e00f520043
:100fe400fcff3a001e029000040242000442780012
:100ff4000404a00004407800b9fd070000000000cc
:10100400451080000400280004826200e00f5200b2
:10101400fbff3a00aafd070000427800044f780065
:10102400c3fd0700d0fd070000000000341080005d
:1010340064026200e00f5200fcff3a001e42780096
:10104400044078000080fa00000006000a00fa005c
:10105400100798002107980032079800430798006a
:1010640085fd0700bcfd070000000000341080006f
:1010740061026200e00f5200fcff3a003e02900061
:1010840004024200044278000440780094fd070002
:10109400000000004410800061026200e00f520072
:1010a400fcff3a0000000000451080000400280006
:1010b40004826200e00f5200fbff3a004e029000ef
:1010c400044278000440780085fd07000000000019
:1010d400451080000400280004826200e00f5200e2
:1010e400fbff3a009cfd0700000000003410800064
:1010f40061026200e00f5200fcff3a003e029000e1
:1011040004024200044278000404a0000440780071
:1011140073fd070000000000451080000400280053
:1011240004826200e00f5200fbff3a000002eb0071
:10113400040f78000f00370061fd070000427800bb
:101144009e029000844a78001e0290000402e80087
:10115400140798000228a90042fd070000000000bf
:101164001440800062026200e00f5200fcff320073
:101174001e0fe8002e0290000402e9009e0f5200a8
:10118400edff3c004efd0700004278009e029000f7
:10119400844a78001e0290000402e80014079800b4
:1011a40063fd070070fd070000000000341080009c
:1011b40064026200e00f5200fcff3a000080fa0073
:1011c400000006000000fa00b2062000810620009c
:1011d40010c0b30026ff0700b201200081062000e2
:1011e40080c0b30022ff0700c20120008106200056
:1011f4000040eb001eff070051072000800620007e
:101204004cff07000042780085c6b300854f5200aa
:1012140002003a0014002000010037000002eb0035
:10122400040078000080fa00000006000200fa00c2
:10123400000f7800800421000700070060052100ea
:101244000e0007009e007800800421001f000700a4
:101254000080fa00000006000200fa00000f780087
:10126400b303200082062000e10020001e00780065
:1012740076ff07000080fa00000006000200fa0072
:10128400000f7800720320008106200020c0b30004
:10129400f7fe0700a2002000c100200010c0b30028
:1012a400f3fe070000e62a00a10020009a030700cd
:1012b40033002000c2002000610020001e007800de
:1012c40062ff07000080fa00000006001600fa0022
:1012d400100f9800210f98001e0a90001442780005
:1012e4000482fb00c822dd001e0a90000402e8000c
:1012f400144278000482fb0005027200040f780097
:101304001e0a90000482e800144278000482fb0064
:10131400c822dd001e0a90006302420014427800d5
:101324000482fb0005027200140798001e0a900054
:1013340064024200144278000482fb00c822dd00eb
:101344001e0a900065024200144278000482fb00e9
:1013540005027200240798001e0a900068024200e9
:10136400144278000482fb00c822dd001e0a9000ab
:1013740069024200144278000482fb0005027200f4
:10138400340798001e0a90006a0242001442780052
:101394000482fb00c822dd001e0a90006b0242009a
:1013a400144278000482fb0005027200440798008e
:1013b4001e0a90006c024200144278000482fb0072
:1013c400c822dd001e0a90006d024200144278001b
:1013d4000482fb0005027200540798001e0a900064
:1013e4006f024200144278000482fb00c822dd0030
:1013f4001e0a90006e024200144278000482fb0030
:1014040005027200640798001e0a900071024200ef
:10141400144278000482fb00c822dd001e0a9000fa
:1014240070024200144278000482fb00050272003c
:10143400740798001e0a9000730242001442780058
:101444000482fb00c822dd001e0a900072024200e2
:10145400144278000482fb0005027200040f980015
:101464009e0278001483800004824200040f7800f6
:101474009e02900024838000048242001407980096
:10148400ae02900034838000048242002407980056
:10149400be029000e4828000048242003407980077
:1014a400ce029000f4828000048242004407980037
:1014b400de029000048380000482420054079800f6
:1014c4001e027800cfa2de000400be006bfd070000
:1014d4000002be0002002000036824000400be00d5
:1014e40003fd07000002be002e0b9000048bbe001b
:1014f4002e0a900064024200240f98001e029000fd
:10150400cfa2de000400be005cfd07000002be00a6
:1015140002002000036824000400be00f4fc07005d
:101524000002be002e0b9000048bbe002e0a900019
:1015340064024200240f98002e029000cfa2de0025
:101544000400be004dfd07000002be0002002000a2
:10155400036824000400be00e5fc07000002be008e
:101564002e0b9000048bbe002e0a900064024200f1
:10157400240f98003e029000cfa2de000400be00bb
:101584003efd07000002be00a25e2700b3982300c0
:101594000400be008ffd07000002be002e0b900069
:1015a400048bbe002e0a900064024200240f9800af
:1015b4004e029000cfa2de000400be002ffd070003
:1015c4000002be00a25e2700b39823000400be0000
:1015d40080fd07000002be002e0b9000048bbe00ad
:1015e4002e0a900064024200240f98005e029000cc
:1015f400cfa2de000400be0020fd07000002be00f2
:10160400a25e2700b39823000400be0071fd07000a
:101614000002be002e0b9000048bbe002e0a900028
:1016240064024200240f98007e029000cfa2de00e4
:101634000400be0011fd07000002be00a2992900ab
:1016440093e923000400be0062fd07000002be000f
:101654002e0b9000048bbe002e0a90006402420000
:10166400240f98006e029000cfa2de000400be009a
:1016740002fd07000002be00a299290093e923009d
:101684000400be0053fd07000002be002e0b9000b4
:10169400048bbe002e0a900064024200240f9800be
:1016a4000e0a90000402ea00cfa2de000400be008d
:1016b400f2fc07000002be00a299290093e923006e
:1016c4000400be0043fd07000002be002e0b900084
:1016d400048bbe002e0a900064024200240f98007e
:1016e4000080fa00000006001600fa0070004700af
:1016f400020009000018eb000002eb00040f780060
:101704002500370000fc2c00a106200082020700ff
:101714000e82e80004007800cffe07000e0a900055
:10172400840278002e4a90000482fb004823dd00e6
:101734003e4a90000482fb000602720004824200ca
:10174400040f98001e0a9000840278004e4a90000c
:101754000482fb004823dd005e4a90000482fb0003
:101764000602720004824200140f98002e0a9000b0
:10177400840278006e4a90000482fb004823dd0056
:101784007e4a90000482fb0006027200048242003a
:10179400240f98001e0fe8001e027800e90f520083
:1017a400d8ff34008e0a9000a40020001100090024
:1017b4008402d80000027800040f98009e0a90006a
:1017c400a4002000110009008402d800000278005f
:1017d400140f9800ae0a9000a40020001100090024
:1017e4008402d80000027800240f98000e0a9000aa
:1017f4000402ea00e48288001e0a90000402ea005f
:10180400f48288002e0a90000402ea00048388000f
:101814000080fa00000006004200fa00889fbe0023
:101824000027980064024700657028001100090031
:10183400351a7800746821001504240044179800b0
:101844005517980094c22500b50c2400641798001d
:101854007517980044352e00d5132400041f9800f2
:10186400151f98006022b800241f9800351f9800a7
:101874006022b800441f9800551f98006022b800e9
:10188400641f9800751f98000002eb00040f780095
:10189400140037001e0278004222dd008e229000e0
:1018a400048442001e0278004222dd008e22900051
:1018b400048242001403be001e0278004222dd00ae
:1018c4008402b000040247001402be000401be00fa
:1018d4000600be00a8fb07000002be00048cbe0088
:1018e4001e0fe8001e027800e20f5200e9ff3400e8
:1018f4000002eb00040f78002a0037000002eb001e
:1019040014079800230037001e0278004222dd00ed
:101914004403b000040247001404be001e02780011
:10192400e322b900840278001e029000048242007f
:101934004222dd0064024200040247001403be0098
:101944001e0290004222dd008e229000048242009a
:101954001402be000401be000600be009dfc070088
:101964000002be000401be000800be0083fb0700a5
:101974000002be001e0378004233dd004603b000bf
:1019840006034700048bbe001e0290000402e80018
:10199400140798001e029000e20f5200daff340090
:1019a4001e0fe8001e027800e20f5200d3ff34003d
:1019b4000002eb00040f78000b0037001e027800d1
:1019c4004222dd008e229000048342001e02780031
:1019d4004222dd004403b000040247001402be00aa
:1019e400048bbe001e0fe8001e027800e20f5200b6
:1019f400f2ff34004f04be000080fa00000006002d
:101a04000000fa00160007001f000700530007003b
:101a140014cea80000d82100c1422000be01070056
:101a240014cea90078000700e6fd07000002780044
:101a3400e00f52000400320011012000206d280044
:101a44007b0007000300370011022000406e2800cd
:101a540077000700170107000080fa000000060065
:101a64000000fa000002eb00747088000002eb0032
:101a7400f470880010cea900114ea90011eea80040
:101a84000080fa00000006000000fa00153a800009
:101a9400f4fb2f0004836200640420007505200019
:101aa40027742000844b7800854b7800864b78009f
:101ab4002536800004f82f0084826200f40220009e
:101ac40005027200243688004534800004fc2f008f
:101ad400048262000400a00044348800153a8000a7
:101ae4000404200004037800050373006404200048
:101af4007505200027742000844b7800854b7800fe
:101b0400864b78000080fa00000006000000fa000e
:101b140005e1a9000401280024088800054280008a
:101b2400040021000502720004428800e42222001d
:101b3400140888000068a9000442800004c0a000c2
:101b440004d0a10004e0a000044288002068a8009a
:101b540005e1a8000080fa00000006000000fa0079
:101b640021e2a90021a2a9002182a9002162a900e1
:101b7400041180000480a1000490a10004118800d5
:101b840020e2a90020c2a90020a2a9002062a90085
:101b9400041180000410a1000420a1000411880095
:101ba4002002a900540220004411880023c2a90085
:101bb40023a2a9002362a9002342a90014118000d2
:101bc4000460a1000470a1001411880022a2a900dd
:101bd4002442800004c0a10004d0a00004e0a000be
:101be400244288000168a9002168a80021e2a80015
:101bf4002342a80000fc2c00a10620004601070097
:101c04000080fa00000006000400fa00642d2000a1
:101c1400040f780004222c00140798009e0078001a
:101c24001e009000c7fa07000080fa0000000600ba
:101c34000600fa0010079800210798000002eb0044
:101c4400040f7800120037001e029000144278003e
:101c5400e04f5200130032001e029000144278003c
:101c64000402fb00241188001e0290000402e80014
:101c740014079800000000001511800004202000c3
:101c840004826200e00f5200fbff3a001e0fe800de
:101c94002e0290009e027800848f5200eaff3500e5
:101ca4000100370000000000d40020002411880047
:101cb400000000001511800004202000048262004e
:101cc400e00f5200fbff3a00a4002000241188001a
:101cd4000080fa00000006000600fa0010079800d1
:101ce400210798000002eb00040f78000e00370073
:101cf4001e029000144278000402fb0024118800a4
:101d04001e0290000402e80014079800000000007e
:101d1400151180000420200004826200e00f5200ac
:101d2400fbff3a001e0fe8002e0290009e0278008e
:101d3400848f5200eeff35000080fa000000060098
:101d44000200fa00000f78000b0037001e02780032
:101d5400144278000402fb00241188001e0fe800de
:101d6400000000001511800004202000048262009d
:101d7400e00f5200fbff3a001e0278001442780084
:101d8400e04f5200f1ff3a000080fa000000060024
:101d94000a00fa00400798000002eb00040f7800e4
:101da400300037004e029000ce029000e4824200e0
:101db40045079800040078002f0007000002be00c9
:101dc40014079800250798001e029000ae029000a8
:101dd400482ade00044278006447980066024700ff
:101de4001100200004007800bbff07001e029000d1
:101df400ae02900040aade00cfa2de0004427800ca
:101e0400644798006602470011002000040078002f
:101e1400b1ff07001e029000ae029000482bdd00c7
:101e24004822de0004027300c8aade0004427800df
:101e340064479800660247001100200004007800ff
:101e4400a5ff07001e029000044278006447980032
:101e54006602470011002000040078009eff07007e
:101e64001e0fe8001e027800e80f5200cdff340078
:101e74000080fa00000006000200fa00000f78005b
:101e84001e0278001402be0002002000a3472400b2
:101e94000400be004ffb07000002be000400be00a9
:101ea400d5fa07000002be000400be000080fa005c
:101eb400000006001200fa000e007800e6fc07009d
:101ec4006c02470004007800ecfc07000e02780066
:101ed40011002000040078007fff07000e02780044
:101ee4000402e800110020000400780050ff0700fd
:101ef4000e0278000482e80011002000040078003b
:101f040075ff07000e0278006302420011002000f2
:101f14000400780046ff07000e02780064024200c5
:101f240011002000040078006bff07000e02780007
:101f34006502420011002000040078003cff070005
:101f44000e027800660242001100200004007800ae
:101f540061ff07000e0278006702420011002000b2
:101f64000400780032ff07000e0278006802420085
:101f7400110020000400780057ff07000e027800cb
:101f840069024200110020000400780028ff0700c5
:101f94000e0278006a02420011002000040078005a
:101fa4004dff07000e0278006b0242001100200072
:101fb400040078001eff07000e0278006c02420045
:101fc400110020000400780043ff07000e0278008f
:101fd4006d024200110020000400780014ff070085
:101fe4000e0278006e024200110020000400780006
:101ff40039ff07000e0278006f0242001100200032
:10200400040078000aff07000e0278007002420004
:1020140011002000040078002fff07000e02780052
:1020240071024200110020000400780000ff070044
:102034000080fa00000006002400fa0044000700b3
:102044006ffe070010cea90014cea900e100200005
:10205400a0722800f6fe070001003700000000000f
:1020640074838000e00f52000c00320014cea800ec
:102074000e0078006dfc0700780247000400780029
:10208400e5fd07000e00780041ff07000002eb00a9
:102094007483880014cea900f1ff37008483800084
:1020a400e00f5200edff32000002eb008483880051
:1020b40014cea8008cfd070014cea900e8ff370059
:020000040000fa
:1020c4006e100000040000008000000000100000fa
:1020d4003c000000800000007210000004000000ba
:1020e400820000000a0dde00000000003c10000029
:1020f4002600000080000000621000000c000000b8
:1021040082000000b9fea3000000000000000200ed
:082114000000000000000000c3
:020000040000fa
:10211c00f03fb1000180b10006003500ee0309006c
:10212c0000000000403fb1000180b100fbff3d000a
:10213c001000b000203fb000020035000080090004
:08214c00000000000000060085
:020000040000fa
:102154000000fa0044042000343a88000002eb0036
:0c216400243a88000080fa000000060009
:020000040000fa
:020000040002f8
:04afe000cfff00009f
:020000040000fa
:020000040002f8
:04afe400efff00007b
:020000040000fa
:020000040002f8
:04afe8007fff0000e7
:020000040000fa
:020000040002f8
:04afec00b9ff0000a9
:020000040000fa
:020000040002f8
:04aff000fbff000063
:020000040000fa
:020000040002f8
:04aff400ffff00005b
:00000001FF
