:020000040000fa
:080000000002040000000000f2
:020000040000fa
:10000800d2020000da020000fe020000e202000054
:10001800ea020000f202000002030000fa020000f7
:10002800fa020000fa020000fa020000fa020000d8
:10003800fa020000fa020000fa020000fa020000c8
:10004800fa020000fa020000fa020000fa020000b8
:10005800fa020000fa020000fa020000fa020000a8
:020000040000fa
:100400000f0021000eff24000e01880000000000f4
:10041000000020000000e000020032000001200087
:10042000200288000c000700006d20000100200061
:100430000f000700000020000000e0000200320072
:100440000000020000000000ae06020000000000f4
:100450000040da000000fe00200620000000e0005e
:1004600002003200002020009001880000000600f9
:10047000a1028800800078000000eb001a0037001d
:10048000e280400054a0b4009101ba00e280400034
:1004900054a0b4009102ba00e280400054a0b4001d
:1004a0000002eb00472bde00f507b200a601880032
:1004b000602ce10008003a000049eb000201e8006e
:1004c000020039003420ec0002f0a0008301e900b2
:1004d000f9ff3e00040037006128e100010032000e
:1004e0000082eb00040007001101ba000200e000e6
:1004f000e3ff3a000000060004d0a300e20f490029
:100500001c003900810278003549ba000201e80078
:10051000020039003420ec0002f0a0008301e90061
:100520000f0032002549ba000201e800020039003c
:100530003420ec0002f0a0008301e9000800320042
:100540000400e0000600320015c9ba000201e8000c
:10055000020039003420ec0002f0a0008301e90021
:100560008180e80054a0b4000300e000e2ff3a00fc
:10057000000006009102ba00055978008301e900e5
:10058000f7ff3200c82ade00055978008301e90030
:10059000f3ff32000400e000f1ff320011d9ba008d
:1005a000eeff3700801f78000000fa00c028a90085
:1005b000ffff3700801f78000000fa00c068a90024
:1005c000ffff3700801f78000000fa00c048a90034
:1005d000ffff3700801f78000000fa00c088a900e4
:1005e000ffff3700801f78000000fa00c0a8a900b4
:1005f000ffff37000000fa00ffff37000000fa009d
:10060000ffff37000000fa00ffff37000000fa008c
:10061000040024000602ab00feff3a000642ab00d5
:10062000fcff3a000662ab00faff3a000622ab007c
:10063000f8ff3a000682ab00f6ff3a004610800051
:1006400086026200e08f5200f2ff3a000080fa005a
:10065000000006000000fa000662a8000662ab0077
:10066000feff3a0008c2a900001080000080fa00d6
:10067000000006000000fa000080fb001010880057
:10068000441080000408b20000c0eb000b003a00e8
:10069000040024004610800086026200e08f5200b1
:1006a000fcff3a00d9ff0700000028000802b6004e
:1006b000e00f500001003200e0cfb3000080fa00ec
:1006c000000006000000fa0006a2a8000682a800aa
:1006d0000080fa00000006000000fa0021108800e7
:1006e000301088000080fa00000006000000fa00c8
:1006f0000602a8000080fa00000006000000fa00d0
:0c0700000642a8000080fa00000006007d
:020000040000fa
:10070c004932000043200000726f00007574000035
:10071c00696e0000650000004932000043200000b3
:10072c006f700000656e00006564000000490000f9
:10073c0032430000207300007461000072740000ea
:10074c0065640000007300006c61000076650000b9
:10075c002061000064640000726500007373000087
:10076c0020740000726100006e7300006d6900005f
:10077c00747400006564000000410000434b0000ed
:10078c00207200006563000065690000766500005a
:10079c0064000000737400006f700000706500004e
:1007ac006400000064730000504900004320000006
:1007bc00697300002072000065610000647900001c
:0407cc000000000029
:020000040000fa
:1007d0000000fa00040007000d00070041000700b8
:1007e0000080fa00000006000000fa000002eb00a2
:1007f000747088000002eb00f470880010cea9002d
:10080000114ea90011eea8000080fa0000000600b9
:100810000000fa00153a8000f4fb2f000483620008
:10082000640420007505200027742000844b7800a4
:10083000854b7800864b78002536800004f82f0021
:1008400084826200f40220000502720024368800cf
:100850004534800004fc2f00048262000400a000e4
:1008600044348800153a8000040420000403780012
:100870000503730064042000750520002774200020
:10088000844b7800854b7800864b78000080fa0016
:10089000000006000000fa0005e1a900040128009c
:1008a000240888000542800004002100050272002f
:1008b00004428800e4222200140888000068a9008d
:1008c0000442800004c0a00004d0a10004e0a00005
:1008d000044288002068a80005e1a8000080fa0012
:1008e000000006000000fa0021e2a90021a2a900f0
:1008f0002182a9002162a900041180000480a100c6
:100900000490a1000411880020e2a90020c2a900df
:1009100020a2a9002062a900041180000410a100f7
:100920000420a100041188002002a9005402200024
:100930004411880023c2a90023a2a9002362a900b0
:100940002342a900141180000460a1000470a100da
:100950001411880022a2a9002442800004c0a10032
:1009600004d0a00004e0a000244288000168a9008f
:100970002168a80021e2a8002342a80000fc2c0066
:10098000a1062000e70007000080fa000000060032
:100990000600fa0014012000040f780004262c0041
:1009a00014079800b10020006038280017000700e5
:1009b0002228a9002208a9009e0078001e009000ad
:1009c00045ff0700a1002000203928000f00070084
:1009d000b20620008106200070c0b300430007006b
:1009e00051072000800620008000070000427800a8
:1009f000444798006402470011002000040078007a
:100a0000020007000080fa00000006000600fa005d
:100a100010079800210798000002eb00040f7800ef
:100a20000b0037001e029000144278000402fb0005
:100a3000241188001e0290000402e80014079800a8
:100a40000017210011002000b60007001e0fe8006b
:100a50002e0290009e027800848f5200f1ff350034
:100a6000d40020002411880000172100110020006c
:100a7000ac000700a400200024118800001721000a
:100a800011002000a70007000080fa000000060007
:100a90000600fa0010079800210798000002eb00fa
:100aa000040f78000b0037001e02900014427800fb
:100ab0000402fb00241188001e0290000402e800da
:100ac000140798000017210011002000950007006e
:100ad0001e0fe8002e0290009e027800848f5200c4
:100ae000f1ff35000080fa00000006000600fa0061
:100af000004f78001107980022079800c3fe0700f6
:100b0000fafe07000000000034108000610262005d
:100b1000e00f5200fcff3a00b1002000d03928005d
:100b2000baff07001e02900004024200044278004f
:100b300004407800cffe0700000000004410800051
:100b400061026200e00f5200fcff3a0091012000b8
:100b5000903a2800adff070000000000451080001b
:100b60000400280004826200e00f5200fbff3a00fc
:100b7000c1002000303c2800a4ff07002e02900096
:100b80000442780004407800bafe0700000000002c
:100b9000451080000400280004826200e00f52002b
:100ba000fbff3a00c1002000303c280097ff0700ff
:100bb0001e42780004407800aefe070000000000ee
:100bc000451080000400280004826200e00f5200fb
:100bd000fbff3a00c1002000303c28008bff0700db
:100be000c6fe07000080fa00000006000600fa00ba
:100bf00010079800210798000042eb00044f78008e
:100c000082fe0700b9fe07000000000034108000db
:100c100061026200e00f5200fcff3a00b1002000c8
:100c2000d039280079ff07001e029000040242001c
:100c300004427800044078008efe070000000000a7
:100c40004410800061026200e00f5200fcff3a0095
:100c500091012000903a28006cff0700000000007e
:100c6000451080000400280004826200e00f52005a
:100c7000fbff3a00c1002000303c280063ff070062
:100c80002e029000044278000440780079fe0700ac
:100c9000000000004510800004002800048262006b
:100ca000e00f5200fbff3a00c1002000303c28005a
:100cb00056ff07008dfe07001e029000040242004e
:100cc000044278000404a0000440780069fe070094
:100cd000000000004510800004002800048262002b
:100ce000e00f5200fbff3a00c1002000303c28001a
:100cf00046ff070057fe070000427800044f7800c7
:100d000070fe07007dfe070071002000003d2800f6
:100d10003eff07001e427800044078000080fa0081
:040d200000000600c9
:020000040000fa
:100d2400f03fb1000180b10006003500ee03090078
:100d340000000000403fb1000180b100fbff3d0016
:100d44001000b000203fb000020035000080090010
:080d5400000000000000060091
:020000040000fa
:100d5c000000fa00080007009afe070010cea90058
:100d6c0014cea90007ff0700e1002000803d2800f9
:100d7c0023ff0700ffff37000000fa0044042000a7
:100d8c00343a88000002eb00243a88000080fa0014
:040d9c00000006004d
:020000040000fa
:040da000000000004f
:020000040000fa
:020000040002f8
:04afe000cfff00009f
:020000040000fa
:020000040002f8
:04afe400efff00007b
:020000040000fa
:020000040002f8
:04afe8007fff0000e7
:020000040000fa
:020000040002f8
:04afec00b9ff0000a9
:020000040000fa
:020000040002f8
:04aff000fbff000063
:020000040000fa
:020000040002f8
:04aff400ffff00005b
:00000001FF
